:020000040000FA
:1000000088030020D1020000D9020000DB020000BA
:10001000DD020000DF020000E1020000000000003D
:10002000000000000000000000000000E3020000EB
:10003000E502000000000000E7020000E50A000001
:10004000EB020000ED020000EF020000F1020000F0
:10005000F3020000CD0E0000F7020000F9020000DC
:10006000FB020000FD020000FF020000010300008F
:10007000030300000503000007030000090300005C
:100080000B0300000D0300000F030000110300002C
:1000900013030000150300001703000019030000FC
:1000A0001B0300001D0300001F03000021030000CC
:1000B000230300002503000027030000290300009C
:1000C0002B0300002D0300002F030000310300006C
:1000D000330300003503000037030000390300003C
:1000E0003B0300003D0300003F030000410300000C
:1000F00043030000450300004703000049030000DC
:100100004B0300004D0300004F03000051030000AB
:10011000530300005503000057030000590300007B
:100120005B0300005D0300005F030000610300004B
:10013000630300006503000067030000690300001B
:100140006B0300006D0300006F03000089030000D3
:1001500000000000000000008B0300008D03000081
:100160008F030000910300000000000093030000D3
:100170009503000097030000990300009B03000013
:100180009D0300009F030000A1030000A3030000E3
:10019000A5030000A7030000A9030000AB030000B3
:1001A000AD030000AF030000B1030000B303000083
:1001B000B5030000B7030000B9030000BB03000053
:1001C000BD030000BF030000C1030000C303000023
:1001D000C5030000C7030000C9030000CB030000F3
:1001E000CD030000CF030000D1030000D3030000C3
:1001F000D5030000D7030000D9030000DB03000093
:1002000000F002F800F03CF80AA090E8000C8244EC
:100210008344AAF10107DA4501D100F031F8AFF2C9
:10022000090EBAE80F0013F0010F18BFFB1A43F0D4
:1002300001031847E817000008180000103A24BF0F
:1002400078C878C1FAD8520724BF30C830C144BF3B
:1002500004680C607047000000230024002500267D
:10026000103A28BF78C1FBD8520728BF30C148BF19
:100270000B6070471FB501F007F91FBD10B510BD29
:1002800000F0BFF81146FFF7F5FF00F039FF00F06E
:10029000DDF803B4FFF7F2FF03BC00F0E5F800005F
:1002A0000138FDD170470000EFF3108072B670473F
:1002B000EFF310807047EFF3108062B6704730BFE5
:1002C000704780F311887047EFF31180704700008A
:1002D0004548804745480047FEE7FEE7FEE7FEE762
:1002E000FEE7FEE7FEE7FEE7FEE7FEE7FEE7FEE7E6
:1002F000FEE7FEE7FEE7FEE7FEE7FEE7FEE7FEE7D6
:10030000FEE7FEE7FEE7FEE7FEE7FEE7FEE7FEE7C5
:10031000FEE7FEE7FEE7FEE7FEE7FEE7FEE7FEE7B5
:10032000FEE7FEE7FEE7FEE7FEE7FEE7FEE7FEE7A5
:10033000FEE7FEE7FEE7FEE7FEE7FEE7FEE7FEE795
:10034000FEE7FEE7FEE7FEE7FEE7FEE7FEE7FEE785
:10035000FEE7FEE7FEE7FEE7FEE7FEE7FEE7FEE775
:10036000FEE7FEE7FEE7FEE7FEE7FEE7FEE7FEE765
:10037000FEE7FEE7FEE7FEE7FEE7FEE7FEE7FEE755
:10038000FEE7FEE7FEE7FEE7FEE7FEE7FEE7FEE745
:10039000FEE7FEE7FEE7FEE7FEE7FEE7FEE7FEE735
:1003A000FEE7FEE7FEE7FEE7FEE7FEE7FEE7FEE725
:1003B000FEE7FEE7FEE7FEE7FEE7FEE7FEE7FEE715
:1003C000FEE7FEE7FEE7FEE7FEE7FEE7FEE7FEE705
:1003D000FEE7FEE7FEE7FEE7FEE7FEE70448054925
:1003E000034A054B70470000A10B0000010200000A
:1003F0008801002088030020880100207047704792
:100400007047754600F02CF8AE4605006946534625
:1004100020F00700854618B020B5FFF7DFFFBDE8E4
:1004200020404FF000064FF000074FF000084FF05B
:10043000000B21F00701AC46ACE8C009ACE8C009EC
:10044000ACE8C009ACE8C0098D46704710B5044659
:10045000AFF300802046BDE81040FFF71ABF000050
:10046000004870472801002001491820ABBEFEE774
:10047000260002007047000010B50749074800F049
:1004800071F90749086000F021F800F00FFB00F057
:100490009FFD00F05FF910BD002D3101800600F1D5
:1004A00014000020D0F8003412F0010F14BF0B43E9
:1004B0008B43C0F8003412F0020FD0F8202414BF90
:1004C000114322EA0101C0F82014704710B50E480C
:1004D00000F0BAFA00BF0C4800F0CAFA0028FAD0BF
:1004E0000948801C00F0B0FA00BF0748801C00F0EB
:1004F000BFFA0028F9D03021044800F0DAF80121D1
:10050000034800F0D6F810BD090800F000100640BE
:10051000003006402DE9F00301264FF0000C0325C2
:10052000C2F3411706FA0CF40C4211D0D0F8C48F74
:100530004FEA4C0405FA04F928EA0908C0F8C48F08
:10054000D0F8C48F07FA04F448EA0404C0F8C44F92
:100550000CF1010C0CF0FF0CBCF1080FE2D3D0F849
:1005600000C512F0010F14BF4CEA010C2CEA010C7B
:10057000C0F800C5D0F804C512F0020F14BF4CEA51
:10058000010C2CEA010CC0F804C5D0F808C512F023
:10059000040F14BF4CEA010C2CEA010CC0F808C58A
:1005A000D0F818C512F0080F14BF4CEA010C2CEA61
:1005B000010CC0F818C512F0100FD0F83C2514BF7C
:1005C0000A438A43C0F83C25D0F80C2513F0010FEC
:1005D00014BF0A438A43C0F80C25D0F8102513F045
:1005E000020F14BF0A438A43C0F81025D0F814251F
:1005F00013F0040F14BF0A438A43C0F81425D0F83F
:100600001C2513F0080F14BF0A438A43C0F81C25A9
:10061000D0F8442513F4007F14BF0A438A43C0F87E
:100620004425D0F8402513F4407F14BF0A438A4381
:10063000C0F84025D0F82825002B0CBF114322EA32
:100640000101C0F82815BDE8F00370470E4AC0F359
:100650000741D26E01238B401A420C4A1ABF02EBAB
:10066000C101496852F83110020AD1F82C354FF017
:100670000F0C0CFA02FC00F00F0023EA0C03904070
:100680001843C1F82C05704700E00F402C160000FD
:1006900050F82100704730B50C4605460022FFF7A0
:1006A00001FF21462846BDE8304008230122FFF71C
:1006B00031BF30B50C46054608230122FFF72AFF5B
:1006C00021462846BDE830400122FFF7EBBE30B599
:1006D0000C4605460222FFF7E5FE21462846BDE806
:1006E000304008230122FFF715BF40F82120704752
:1006F0001649042804BF086840F4803018D0052843
:1007000004BF086840F4003012D0062812D00F2829
:1007100015D0102838BF7047103800F01F01012293
:1007200002FA01F142090A4850F8220001607047BC
:1007300008607047086840F48020086070474FF0F8
:10074000E020016941F002010161704724ED00E001
:100750007817000010B5FFF7AEFD002818BF012084
:1007600010BD00002DE9F003AD4D02462868AD4BE9
:100770001840A0F18053B3F5A02358D002F03809F7
:10078000DFF8A482C2F38414B9F1100F24D0B9F1B8
:10079000300F04BF47F230504FF400130CD0382014
:1007A000904304BF4FF40040C30105D012F0380F4E
:1007B0001CBF0020034613D09C4F12F4605F4FF023
:1007C000000618BF00222CD057F8324044457DD394
:1007D00007EBC2025268DFE0002340461524EBE736
:1007E000A4F10900122822D29148D5F87CC04FF01C
:1007F0004C7350F824002CF01C0C072CA8BF4CF0B4
:10080000100CC5F87CC02E6D4FF4002C16F4807FC0
:10081000D2D1BCF1010C0AD02E6D16F4807FF8D035
:10082000CAE712F0380F18BFB9F1100F03D0BDE8B6
:10083000F00300207047C2F30268DFF8F8C100221D
:1008400057F83290E14503D307EBC202526803E048
:10085000521C062AF4D33246C5F8C020D5F8B02081
:10086000DFF8D4C102EA0C0242F00042C5F8B02021
:10087000DFF8C8C1A4F109024C1E5CF828C0A444EA
:10088000BCFBF1FCD5F8B0101943C5F8B01008EB6B
:10089000C80101EB41046A4902EB420201EBC401C9
:1008A00001EB82046468C5F86441D5F864416FF0D7
:1008B000FF0808EB0C2C44EA0C0CC5F864C151F895
:1008C0002210D5F8602102F4000200E05FE011433D
:1008D000C5F86011D5F86011D5F86021C1F3892100
:1008E000C2F30904D5F86421C2F3042202F1010C19
:1008F000D5F8642102F01F02521CB0FBF2F04A0945
:10090000C2F100084443424301EB481104EB521288
:10091000484302EB9020B0FBFCF04108084600225F
:1009200057F832C0844503D307EBC200466802E0A3
:10093000521C062AF4D3C5F8C060D5F8600110F443
:10094000000F1DBFD5F8B00040F08040C5F8B000E2
:10095000D5F8600104BF40F40000C5F860014FF411
:100960000040D5F8682112F0010F02D1401E002886
:10097000F7DC002808BF002148D0D5F8B0001843A4
:1009800040F0010040F01040C5F8B0003EE0521CBD
:10099000062AFFF419AF3246C5F8C020D5F8602109
:1009A00022F40002C5F86021D5F8B020DFF894C029
:1009B00002EA0C0242F00042C5F8B020002908BF4C
:1009C0004FF0000C0AD0B0FBF1FCBCF1000F18BFD7
:1009D000ACF1010C0CF10101B0FBF1F10846002271
:1009E00057F83240844203D307EBC200466802E066
:1009F000521C062AF4D3C5F8C060D5F8B00043EA0B
:100A00008C22104340F00040C5F8B000D5F8B0008B
:100A100020F47000C5F8B000BDE8F0030846704748
:100A200000E00F400000FF700024F400EC1900000B
:100A3000D017000040787D0100FC0FE0C8170000CF
:100A40003C180000FF0300EFC0F307230749C0B2C2
:100A5000194401F07043C1F3130143EA411141EA23
:100A6000800040F0007001220260704700E60F40F5
:100A7000C0F307220849C0B2114401F07042C1F32B
:100A8000130142EA411141EA800040F00070006821
:100A9000002818BF0120704700EA0F404FF0E02007
:100AA000016941F0050101617047000010B5064879
:100AB00000683221B0FBF1F4204600F00EF8FFF799
:100AC000EDFF00F003F810BD140000204FF0E0200F
:100AD000016941F00201016170474FF0E021401EC1
:100AE0004861704710B525480078322805DA234858
:100AF0000078401C2149087005E000201F4908705B
:100B000001201F4908701F4800780A2190FBF1F06E
:100B10001D4908711B4800780A2190FBF1F201FB86
:100B2000120019494871194800780A2190FBF1F028
:100B300015498871154800780A2190FBF1F201FBF4
:100B400012001149C871124800780A2190FBF1F097
:100B50000D4908700E4800780A2190FBF1F201FB64
:100B60001200094948700B4A0B480178064800F00A
:100B70000BF900F0B9F80949087010BD55000020C4
:100B80005400002047000020000000204800002002
:100B9000490000200900002008000020110000206A
:100BA0000448006840F470000249086002480349A4
:100BB0000860704788ED00E00024F4005C0000202D
:100BC000014600202D2956D014DC212976D2DFE8F9
:100BD00001F030323436383A3C3E40424446484ACE
:100BE0004C4E757575757575757575757575757505
:100BF000757554004C294ED00ADCA1F14102092A36
:100C00005CD2DFE802F03E5B594E4C443C5240005F
:100C1000592948D006DC4E2937D052293DD05529D4
:100C20004CD136E05F2924D0622943D06F2945D1C9
:100C30003EE03F2044E0062042E05B2040E04F20C1
:100C40003EE066203CE06D203AE07D2038E0072061
:100C500036E07F2034E06F2032E0772030E07C20E7
:100C60002EE039202CE05E202AE0792028E0712057
:100C700026E0082024E0402022E0002020E03D2063
:100C80001EE077201CE006201AE0372018E07120D3
:100C900016E03E2014E0382012E0502010E07920C9
:100CA0000EE05E200CE06E200AE0762008E005E011
:100CB0005C2005E07C2003E0392001E0002000BF3B
:100CC00000BF704710B5002210210648FFF70DFD48
:100CD0008A2000F0A7F8102211460248FFF705FD10
:100CE00010BD00000010064038B50025002210217C
:100CF0002448FFF7FAFC422000F094F8002401E0B9
:100D0000601CC4B2052CFBDB002405E000F0B4F845
:100D10000DF80400601CC4B2042CF7DB102211464D
:100D20001848FFF7E2FC9DF80000042800D10125D7
:100D30009DF80000022800D102259DF8000001283E
:100D400000D103259DF80000402800D104259DF81E
:100D50000000202800D105259DF80000102800D1B2
:100D600006259DF80100042800D107259DF8010003
:100D7000022800D108259DF80100012800D109258D
:100D8000284638BD001006402DE9FF4105460E46B5
:100D900017464FF00108002419E0285DFFF710FF07
:100DA0000DF8140006EA080028B11DF8140040F000
:100DB00080000DF814004FEA48604FEA1068385D73
:100DC000012101EB44010DF80100601CC4B2082CA4
:100DD000E3DB002210211248FFF787FC402000F0DF
:100DE00021F8102211460E48FFF77FFC0022102147
:100DF0000B48FFF77AFCC02000F014F8002405E04F
:100E00001DF8040000F00EF8601CC4B2102CF7DBD3
:100E1000102211460248FFF768FCBDE8FF81000080
:100E20000010064070B5044620211148FFF741FC30
:100E300000251AE0002201210E48FFF756FC04F0BD
:100E4000010028B1202211460948FFF74EFC04E0BA
:100E5000002220210648FFF748FC641001221146B9
:100E60000448FFF742FC681CC5B2082DE2DB70BDE8
:100E7000001006400030064070B5002420211148C3
:100E8000FFF709FC002518E06410002201210E483C
:100E9000FFF72BFC012211460B48FFF726FC20210F
:100EA0000848FFF7F5FB08B144F080040022012157
:100EB0000548FFF71AFC681CC5B2082DE4DB204684
:100EC00070BD0000001006400030064070B50121E2
:100ED000134800F0B9F805462946114800F0AEF86D
:100EE00017E00F4800F024F8C4B20D2C09D00D48CB
:100EF0000D49097844540C480078401C0A49087090
:100F000007E001200949087000200649064A1278C6
:100F10008854034800F01CF80028E2D170BD00009E
:100F200000C00040600000201800002019000020D0
:100F3000816911F0100F0CBF00684FF0FF3070474F
:100F4000826912F0200F06BF016001200020704767
:100F50008069012121EA10107047D0F818C01CF0F8
:100F6000080FFAD1D0F82CC02CF0100CC0F82CC00F
:100F7000D0F830C02CF0010C2CF4407CC0F830C00C
:100F8000D0F830C0B1EB021F34BF4CF0200C2CF075
:100F9000200CC0F830C038BF5208C900B1FBF2F1D4
:100FA000491C49088A09426201F03F018162C3621B
:100FB00000218161C16A41F01001C162016B40F200
:100FC00001321143016370471143416370470000D0
:100FD00010B51648FFF738FD1548FFF735FD00BF7F
:100FE0001348FFF745FD0028FAD00120FFF72EFB3C
:100FF00040F20140FFF72AFB03214FF04020FFF7AA
:1010000066FB60234FF4E1320A4801680A48FFF7A3
:10101000A4FF202200210848FFF7D6FF1520FFF784
:1010200067FB5021044800F00BF810BD001800F0D9
:10103000000800F01400002000C000404164704728
:10104000826B114381637047002914BF006CC06B31
:101050007047000070B506460C46002507E0217871
:101060000548FFF76DFF054605B1641C0025207893
:101070000028F4D170BD000000C0004030B51D4B09
:101080001B7813441B4C237023461B783C2B0ADB34
:1010900023461B783C2493FBF4F504FB1533154CD5
:1010A00023704B1CD9B2144B1B780B44124C237089
:1010B00023461B783C2B0ADB23461B783C2493FBFE
:1010C000F4F504FB15330C4C2370431CD8B20B4BC6
:1010D0001B780344094C237023461B78182B08DB2C
:1010E00023461B78182493FBF4F504FB1533034CBB
:1010F000237030BD49000020480000204700002038
:10110000FFF7BAF96B48006840F6B831B0FBF1F070
:10111000C0EB001084002046FFF7C2F8FFF7D2FDB5
:1011200065A16748FFF796FFC2E000F06DF96548DA
:101130000078012807D100206249087001220021AF
:101140000846FFF79BFF604800780128ECD100209B
:101150005D4908705D4908705D4800F0DFF820B116
:101160005CA15748FFF776FF8CE0594800F0ECF897
:10117000A0B35748C079303855498979303901EBE7
:10118000810100EB4100C4B25148807A30385049A7
:10119000497A303901EB810100EB4100C5B24C487E
:1011A000407B30384A49097B303901EB810100EB43
:1011B0004100C6B2172C03DC3B2D01DC3B2E04DDC5
:1011C00047A13F48FFF746FF07E0494804704948F8
:1011D00005704948067000F017F953E0FFE73C48F6
:1011E00000F0CEF8002849D03948C0793038384965
:1011F0008979303901EB810100EB4100C4B23448F8
:10120000807A30383249497A303901EB810100EB7C
:101210004100C5B22E48407B30382D49097B30391A
:1012200001EB810100EB4100C6B2172C03DC3B2D22
:1012300001DC3B2E04DD2AA12148FFF70BFF1CE057
:10124000234800F0B9F820B122A11D48FFF702FFA2
:1012500013E01F4800F0C6F820B128A11848FFF796
:10126000F9FE0AE0324629462046FFF707FF00F064
:10127000CBF827491248FFF7EDFE03E018A110480C
:10128000FFF7E8FE23A10E48FFF7E4FE0020224905
:10129000086009E000200E491F4A126888541E4861
:1012A0000068401C1C4908601B480068C828F1D32E
:1012B0003BE700001400002052454144590D0A004C
:1012C00000C0004054000020190000201800002039
:1012D00060000020434C415353323234350D00003E
:1012E0004572726F7220436F6D6D616E64210D00E7
:1012F000470000204800002049000020434F44459B
:101300003532323033313931303235350D0000006D
:101310004A0000200A000000580000200246002178
:1013200008E0505C074B5B5C984201D0002070479E
:10133000481CC1B20629F4DBD07908B90120F6E7D0
:101340000020F4E71A0000200146002208E0885C33
:101350000A4B9B5C984201D000207047501CC2B2DF
:10136000062AF4DB087A3A2806D1C87A3A2803D14B
:10137000C87B08B90120F0E70020EEE7210000203B
:101380000146002208E0885C0A4B9B5C984201D031
:1013900000207047501CC2B2062AF4DB087A3A28B3
:1013A00006D1C87A3A2803D1C87B08B90120F0E7F2
:1013B0000020EEE7280000200246002108E0505CF3
:1013C000074B5B5C984201D000207047481CC1B2BB
:1013D0000829F4DB507A08B90120F6E70020F4E789
:1013E0002F0000200246002108E0505C054B5B5CAA
:1013F000984201D000207047481CC1B20E29F4DB8E
:101400000120F8E7380000201B4800780A2190FBF3
:10141000F1F0303019490870174800780A2190FB24
:10142000F1F201FB12003030144948701448007882
:101430000A2190FBF1F030301049C8701048007854
:101440000A2190FBF1F201FB120030300B490871C8
:101450000C4800780A2190FBF1F030300749887180
:10146000084800780A2190FBF1F201FB12003030AD
:101470000249C87170470000470000204A00002060
:1014800048000020490000204FF04070E1EE100AB3
:101490007047000000400040100000000080054040
:1014A00010000000005000401100000000900540B6
:1014B00011000000006000401200000000A0054084
:1014C00012000000007000401300000000B0054052
:1014D00013000000004002401400000000C005405E
:1014E00014000000005002402E00000000D0054013
:1014F0002E000000006002402F00000000E00540C8
:101500002F000000007002403000000000F0054095
:101510003000000000D003404600000000000640FC
:101520004600000000100640470000000020064072
:1015300048000000003006407F00000000400640E8
:10154000800000000050064084000000006006405B
:101550008C000000004000401000000000800540AA
:1015600010000000005000401100000000900540F5
:1015700011000000006000401200000000A00540C3
:1015800012000000007000401300000000B0054091
:1015900013000000004002401400000000C005409D
:1015A00014000000005002402E00000000D0054052
:1015B0002E000000006002402F00000000E0054007
:1015C0002F000000007002403000000000F00540D5
:1015D0003000000000D0034043000000000006403F
:1015E00043000000001006404400000000200640B8
:1015F0004500000000300640580000000040064052
:1016000059000000005006405C00000000600640E9
:1016100064000000007006406C000000008006407E
:101620006D000000009006407F0000000040004078
:1016300000800540005000400090054000600040E0
:1016400000A005400070004000B00540004002408E
:1016500000C005400050024000D00540006002403C
:1016600000E005400070024000F0054000D003405B
:101670000000064000100640001006400020064012
:101680000020064000300640003006400040064082
:1016900000400640005006400050064000600640F2
:1016A0000060064000700640007006400080064062
:1016B00000800640009006400090064000070000B1
:1016C0000006000000050000000400000003000008
:1016D0000002000000010000000000000000000007
:1016E00018ED00E01CED00E020ED00E000E400E07B
:1016F00004E400E008E400E00CE400E010E400E0B2
:1017000014E400E018E400E01CE400E020E400E061
:1017100024E400E028E400E02CE400E030E400E011
:1017200034E400E038E400E03CE400E040E400E0C1
:1017300044E400E048E400E04CE400E050E400E071
:1017400054E400E058E400E05CE400E060E400E021
:1017500064E400E068E400E06CE400E070E400E0D1
:1017600074E400E078E400E07CE400E080E400E081
:1017700084E400E088E400E000E100E004E100E04F
:1017800008E100E00CE100E010E100E080E100E0B1
:1017900084E100E088E100E08CE100E090E100E01D
:1017A00000E200E004E200E008E200E00CE200E019
:1017B00010E200E080E200E084E200E088E200E085
:1017C0008CE200E090E200E000688909001C4E0E07
:1017D00040420F0000201C0080841E000080250075
:1017E000999E36000040380000093D0000803E0010
:1017F00000004B00404B4C0000204E00808D5B00F1
:1018000000C05D000080700000127A0000007D00C2
:1018100080969800001BB7000080BB00C0E8CE0097
:10182000647ADA000024F4000000FA0080A81201B3
:10183000002D310100366E0140787D01400000002E
:1018400000000000000100003E0008000000000051
:1018500000010000A00000000200000000010000E4
:101860003454010000000000000100002B7006004D
:10187000000000000001000028000000000000003F
:10188000000100002700010000000000000100002E
:1018900020000000000000000001000050000000D7
:1018A00002000000000100001AAC0000000000006F
:1018B0000001000017940900000000000001000072
:1018C0001698050000000000000100001400000050
:1018D000000000000001000013800800000000006C
:1018E00000010000A000000008000000000100004E
:1018F00010000000000000000001000028000000AF
:101900000200000000010000400000000400000090
:101910000001000060000000000000000001000065
:101920005D000C00000000000001000050000000FD
:1019300000000000000100004E0002000000000056
:101940000001000041AC01000000000000010000A7
:101950003C00000000000000000100003A80090087
:101960000000000000010000300000000000000046
:10197000000100002800000000000000000100003D
:1019800027000100000000000001000023600600A5
:1019900000000000000100002160080000000000BD
:1019A000000100001E000000000000000001000017
:1019B0001DC00400000000000001000050000000F5
:1019C00002000000000100001800000000000000FC
:1019D00000010000140000000000000000010000F1
:1019E0006000000004000000000100000024F4007A
:1019F00030003000005A620291009100008793038A
:101A0000D200D20000B4C4041301130100E1F505B3
:101A100054015401000E2707950195013C1A00005E
:101A200000000020600000003C0200009C1A000042
:101A30006000002028030000580200000000202061
:101A400000000000A00000000000000001000000F5
:101A500000000000000041542B4745540041542B26
:101A60005345540041542B494E430041542B434CA1
:101A70004153530041542B53545544454E54434F06
:101A800044450000000030303A30303A3030000039
:0C1A900000000000000000000024F40032
:04000005000002D124
:00000001FF
