:020000040000FA
:10000000680600200903000011030000130300002C
:100010001503000017030000190300000000000092
:100020000000000000000000000000001B030000B2
:100030001D030000000000001F030000410D000030
:10004000230300002503000027030000290300000C
:100050002B0300002D0300002F03000031030000DC
:1000600033030000350300003703000039030000AC
:100070003B0300003D0300003F030000410300007C
:10008000430300004503000047030000490300004C
:100090004B0300004D0300004F030000510300001C
:1000A00053030000550300005703000059030000EC
:1000B0005B0300005D0300005F03000061030000BC
:1000C000630300006503000067030000690300008C
:1000D0006B0300006D0300006F030000710300005C
:1000E000730300007503000077030000790300002C
:1000F0007B0300007D0300007F03000081030000FC
:1001000083030000850300008703000089030000CB
:100110008B0300008D0300008F030000910300009B
:10012000930300009503000097030000990300006B
:100130009B0300009D0300009F030000A10300003B
:10014000A3030000A5030000A7030000C1030000F3
:100150000000000000000000C3030000C503000011
:10016000C7030000C903000000000000CB0300002B
:10017000CD030000CF030000D1030000D303000033
:10018000D5030000D7030000D9030000DB03000003
:10019000DD030000DF030000E1030000E3030000D3
:1001A000E5030000E7030000E9030000EB030000A3
:1001B000ED030000EF030000F1030000F303000073
:1001C000F5030000F7030000F9030000FB03000043
:1001D000FD030000FF030000010400000304000011
:1001E0000504000007040000090400000B040000DF
:1001F0000D0400000F0400001104000013040000AF
:1002000000F002F800F05CF80AA090E8000C8244CC
:100210008344AAF10107DA4501D100F051F8AFF2A9
:10022000090EBAE80F0013F0010F18BFFB1A43F0D4
:100230000103184758260000782600000A444FF0B2
:10024000000C10F8013B13F0070408BF10F8014B35
:100250001D1108BF10F8015B641E05D010F8016B7A
:10026000641E01F8016BF9D113F0080F1EBF10F8DE
:10027000014BAD1C0C1B09D16D1E58BF01F801CB01
:10028000FAD505E014F8016B01F8016B6D1EF9D584
:100290009142D6D370470000002300240025002699
:1002A000103A28BF78C1FBD8520728BF30C148BFD9
:1002B0000B6070471FB502F0B9F91FBD10B510BD36
:1002C00000F0BBF81146FFF7F5FF01F08FFA00F0E0
:1002D000D9F803B4FFF7F2FF03BC00F0E1F8000027
:1002E000EFF3108072B67047EFF310807047EFF3B2
:1002F000108062B6704730BF704780F31188704736
:10030000EFF311807047000045488047454800479B
:10031000FEE7FEE7FEE7FEE7FEE7FEE7FEE7FEE7B5
:10032000FEE7FEE7FEE7FEE7FEE7FEE7FEE7FEE7A5
:10033000FEE7FEE7FEE7FEE7FEE7FEE7FEE7FEE795
:10034000FEE7FEE7FEE7FEE7FEE7FEE7FEE7FEE785
:10035000FEE7FEE7FEE7FEE7FEE7FEE7FEE7FEE775
:10036000FEE7FEE7FEE7FEE7FEE7FEE7FEE7FEE765
:10037000FEE7FEE7FEE7FEE7FEE7FEE7FEE7FEE755
:10038000FEE7FEE7FEE7FEE7FEE7FEE7FEE7FEE745
:10039000FEE7FEE7FEE7FEE7FEE7FEE7FEE7FEE735
:1003A000FEE7FEE7FEE7FEE7FEE7FEE7FEE7FEE725
:1003B000FEE7FEE7FEE7FEE7FEE7FEE7FEE7FEE715
:1003C000FEE7FEE7FEE7FEE7FEE7FEE7FEE7FEE705
:1003D000FEE7FEE7FEE7FEE7FEE7FEE7FEE7FEE7F5
:1003E000FEE7FEE7FEE7FEE7FEE7FEE7FEE7FEE7E5
:1003F000FEE7FEE7FEE7FEE7FEE7FEE7FEE7FEE7D5
:10040000FEE7FEE7FEE7FEE7FEE7FEE7FEE7FEE7C4
:10041000FEE7FEE704480549034A054B7047000024
:100420002D0E000001020000680400206806002074
:1004300068040020704770477047754600F02CF83C
:10044000AE4605006946534620F00700854618B0C1
:1004500020B5FFF7DFFFBDE820404FF000064FF06A
:1004600000074FF000084FF0000B21F00701AC46E9
:10047000ACE8C009ACE8C009ACE8C009ACE8C00908
:100480008D46704710B50446AFF300802046BDE8A6
:100490001040FFF71EBF000000487047080400200E
:1004A00001491820ABBEFEE726000200704700009D
:1004B00018480078082821D11748006817490860B3
:1004C00000201549086015480068012805D1144925
:1004D00008600020134908601AE010480068B8B9A5
:1004E00010480068401C0F4908600A2810D30120FA
:1004F0000B49086000200B49086009E006480068C5
:100500000649086001200449086000200549086088
:10051000704700002D010020FC0000200001002099
:1005200008010020040100200C48007806280DD1A5
:100530000B4800680B490860002009490860094819
:100540000068012809D10849086006E004480068ED
:100550000449086001200249086070472D0100200D
:10056000CC000020D0000020D800002010B50649A3
:10057000064800F025FA0649086000F043F800F04C
:10058000C3FB00F05FF910BD002D3101800600F1C2
:10059000300100200E48006810B1012812D109E096
:1005A0000C480078052804D10120094908600A494F
:1005B00008600BE007480078052802D000200449B5
:1005C000086003E000200249086000BF00BF7047D8
:1005D000BC0000202D010020C8000020D0F800340D
:1005E00012F0010F14BF0B438B43C0F8003412F01C
:1005F000020FD0F8202414BF114322EA0101C0F8F1
:100600002014704710B50F4800F04CFB00BF0D4898
:1006100000F05CFB0028FAD00A48801C00F042FB86
:1006200000BF0848801C00F051FB0028F9D03021A1
:10063000054800F0BAF80121044800F0B6F800F0CF
:100640004DF910BD090800F00010064000300640CA
:100650002DE9F00301264FF0000C0325C2F34117EA
:1006600006FA0CF40C4211D0D0F8C48F4FEA4C04B7
:1006700005FA04F928EA0908C0F8C48FD0F8C48F35
:1006800007FA04F448EA0404C0F8C44F0CF1010C62
:100690000CF0FF0CBCF1080FE2D3D0F800C512F04B
:1006A000010F14BF4CEA010C2CEA010CC0F800C584
:1006B000D0F804C512F0020F14BF4CEA010C2CEA6A
:1006C000010CC0F804C5D0F808C512F0040F14BF1F
:1006D0004CEA010C2CEA010CC0F808C5D0F818C58A
:1006E00012F0080F14BF4CEA010C2CEA010CC0F800
:1006F00018C512F0100FD0F83C2514BF0A438A43E6
:10070000C0F83C25D0F80C2513F0010F14BF0A43A4
:100710008A43C0F80C25D0F8102513F0020F14BF3F
:100720000A438A43C0F81025D0F8142513F0040FAB
:1007300014BF0A438A43C0F81425D0F81C2513F0CF
:10074000080F14BF0A438A43C0F81C25D0F844257B
:1007500013F4007F14BF0A438A43C0F84425D0F83D
:10076000402513F4407F14BF0A438A43C0F8402554
:10077000D0F82825002B0CBF114322EA0101C0F854
:100780002815BDE8F003704750F82100704730B5D8
:100790000C4605460022FFF721FF21462846BDE80A
:1007A000304008230122FFF753BF30B50C46054601
:1007B00008230122FFF74CFF21462846BDE83040C0
:1007C0000122FFF70BBF40F821207047184800783E
:1007D000022821D1174800681749086000201549F0
:1007E000086015480068012805D1144908600020F8
:1007F000134908601AE010480068B8B9104800684A
:10080000401C0F4908600A2810D301200B490860DA
:1008100000200B49086009E00648006806490860A6
:100820000120044908600020054908607047000065
:100830002D010020EC000020F0000020F800002036
:10084000F400002010B5FFF752FD002818BF01206A
:1008500010BD000010B5002201211F48FFF7B3FFB3
:10086000642000F097F8012211461B48FFF7ABFF08
:10087000642000F08FF8E22001F05CF8052000F021
:1008800089F82C2001F056F8322000F083F82E2051
:1008900001F050F8322000F07DF82F2001F04AF8E6
:1008A000052000F077F8232001F044F8812001F0C2
:1008B00041F8282001F03EF8A22001F03BF8C820C2
:1008C00001F038F8A02001F035F8402001F032F8AE
:1008D000AF2001F02FF810BD0010064010B52748DA
:1008E00000F0E0F900BF254800F0F0F90028FAD048
:1008F0002248C01D00F0D6F900BF2048C01D00F0FE
:10090000E5F90028F9D01D48401E00F0CBF900BFE2
:100910001A48401E00F0DAF90028F9D01748801C68
:1009200000F0C0F900BF1548801C00F0CFF9002886
:10093000F9D007211248FFF738FF30211148FFF79F
:1009400034FF30211048FFF730FF10210F48FFF728
:100950002CFF40210B48FFF71AFF0848C01C00F08D
:10096000A1F900BF0548C01C00F0B0F90028F9D07B
:1009700002210748FFF719FF10BD0000020800F030
:10098000001006400060004000500040004002405F
:1009900000500240002105E0002200E0521C6E2AB7
:1009A000FCDB491C8142F7DB7047002105E0002297
:1009B00000E0521C012AFCDB491C8142F7DB704736
:1009C0002DE9F003AD4D02462868AD4B1840A0F16B
:1009D0008053B3F5A02358D002F03809DFF8A48281
:1009E000C2F38414B9F1100F24D0B9F1300F04BF51
:1009F00047F230504FF400130CD03820904304BF1E
:100A00004FF40040C30105D012F0380F1CBF002086
:100A1000034613D09C4F12F4605F4FF0000618BFDE
:100A200000222CD057F8324044457DD307EBC20258
:100A30005268DFE0002340461524EBE7A4F10900EB
:100A4000122822D29148D5F87CC04FF04C7350F850
:100A500024002CF01C0C072CA8BF4CF0100CC5F87F
:100A60007CC02E6D4FF4002C16F4807FD2D1BCF1E7
:100A7000010C0AD02E6D16F4807FF8D0CAE712F070
:100A8000380F18BFB9F1100F03D0BDE8F0030020F4
:100A90007047C2F30268DFF8F8C1002257F83290BD
:100AA000E14503D307EBC202526803E0521C062A59
:100AB000F4D33246C5F8C020D5F8B020DFF8D4C151
:100AC00002EA0C0242F00042C5F8B020DFF8C8C1CB
:100AD000A4F109024C1E5CF828C0A444BCFBF1FC44
:100AE000D5F8B0101943C5F8B01008EBC80101EBF8
:100AF00041046A4902EB420201EBC40101EB8204AA
:100B00006468C5F86441D5F864416FF0FF0808EBEC
:100B10000C2C44EA0C0CC5F864C151F82210D5F82D
:100B2000602102F4000200E05FE01143C5F86011AB
:100B3000D5F86011D5F86021C1F38921C2F3090409
:100B4000D5F86421C2F3042202F1010CD5F8642126
:100B500002F01F02521CB0FBF2F04A09C2F1000879
:100B60004443424301EB481104EB5212484302EB69
:100B70009020B0FBFCF041080846002257F832C034
:100B8000844503D307EBC200466802E0521C062AE4
:100B9000F4D3C5F8C060D5F8600110F4000F1DBF94
:100BA000D5F8B00040F08040C5F8B000D5F860013D
:100BB00004BF40F40000C5F860014FF40040D5F8D0
:100BC000682112F0010F02D1401E0028F7DC002836
:100BD00008BF002148D0D5F8B000184340F001000C
:100BE00040F01040C5F8B0003EE0521C062AFFF469
:100BF00019AF3246C5F8C020D5F8602122F40002B2
:100C0000C5F86021D5F8B020DFF894C002EA0C02E4
:100C100042F00042C5F8B020002908BF4FF0000C98
:100C20000AD0B0FBF1FCBCF1000F18BFACF1010C15
:100C30000CF10101B0FBF1F10846002257F83240F7
:100C4000844203D307EBC200466802E0521C062A26
:100C5000F4D3C5F8C060D5F8B00043EA8C22104345
:100C600040F00040C5F8B000D5F8B00020F47000A6
:100C7000C5F8B000BDE8F0030846704700E00F403B
:100C80000000FF700024F4005C28000040260000F3
:100C900040787D0100FC0FE038260000AC26000003
:100CA000FF0300EFC0F307230749C0B2194401F066
:100CB0007043C1F3130143EA411141EA800040F05F
:100CC000007001220260704700E60F40C0F3072267
:100CD0000849C0B2114401F07042C1F3130142EA65
:100CE000411141EA800040F000700068002818BF00
:100CF0000120704700EA0F404FF0E020016941F009
:100D0000050101617047000010B5064800683221F6
:100D1000B0FBF1F4204600F00EF8FFF7EDFF00F015
:100D200003F810BD300100204FF0E020016941F0D0
:100D30000201016170474FF0E021401E4861704799
:100D400010B52E480078401CC0B22C490870052808
:100D500005DB01202A49087000202849087029482D
:100D60000078401CC0B227490870192805DB012013
:100D700025490870002023490870244A2448017836
:100D8000244800F047F900F0F5F8234908700846B8
:100D9000007820494871FFF7FDFBFFF7C5FB00F025
:100DA000DBF9FFF713FDFFF783FB1B48007878B9E9
:100DB0001A480088401C80B218490880B0F5FA7FB4
:100DC00009DB01201649087000201449088002E060
:100DD0000020124908801348007868B9124800883A
:100DE000401C80B210490880FA2805DB01200D491B
:100DF000087000200C49088010BD00000C01002084
:100E0000120100200D010020130100202501002007
:100E1000240100201C0100202D0100200E010020D3
:100E20001401002015010020100100200448006872
:100E300040F47000024908600248034908607047A6
:100E400088ED00E00024F400340100200146002079
:100E50002D2956D014DC212976D2DFE801F030327A
:100E60003436383A3C3E40424446484A4C4E75750A
:100E700075757575757575757575757575755400B8
:100E80004C294ED00ADCA1F14102092A5CD2DFE8EC
:100E900002F03E5B594E4C443C524000592948D028
:100EA00006DC4E2937D052293DD055294CD136E0A9
:100EB0005F2924D0622943D06F2945D13EE03F20ED
:100EC00044E0062042E05B2040E04F203EE0662008
:100ED0003CE06D203AE07D2038E0072036E07F20BE
:100EE00034E06F2032E0772030E07C202EE03920A3
:100EF0002CE05E202AE0792028E0712026E00820FE
:100F000024E0402022E0002020E03D201EE0772069
:100F10001CE006201AE0372018E0712016E03E2081
:100F200014E0382012E0502010E079200EE05E201E
:100F30000CE06E200AE0762008E005E05C2005E089
:100F40007C2003E0392001E0002000BF00BF704793
:100F500010B5002210210648FFF735FC8A2000F06A
:100F6000A7F8102211460248FFF72DFC10BD000023
:100F70000010064038B50025002210212448FFF754
:100F800022FC422000F094F8002401E0601CC4B26E
:100F9000052CFBDB002405E000F0B4F80DF804009C
:100FA000601CC4B2042CF7DB102211461848FFF76E
:100FB0000AFC9DF80000042800D101259DF80000DE
:100FC000022800D102259DF80000012800D1032548
:100FD0009DF80000402800D104259DF8000020283D
:100FE00000D105259DF80000102800D106259DF8A8
:100FF0000100042800D107259DF80100022800D136
:1010000008259DF80100012800D10925284638BD92
:10101000001006402DE9FF4105460E4617464FF0E9
:101020000108002419E0285DFFF710FF0DF81400F7
:1010300006EA080028B11DF8140040F080000DF801
:1010400014004FEA48604FEA1068385D012101EB57
:1010500044010DF80100601CC4B2082CE3DB00223F
:1010600010211248FFF7AFFB402000F021F81022BA
:1010700011460E48FFF7A7FB002210210B48FFF78F
:10108000A2FBC02000F014F8002405E01DF80400C5
:1010900000F00EF8601CC4B2102CF7DB10221146D1
:1010A0000248FFF790FBBDE8FF81000000100640FA
:1010B00070B5044620211148FFF777FB00251AE0A0
:1010C000002201210E48FFF77EFB04F0010028B149
:1010D000202211460948FFF776FB04E00022202178
:1010E0000648FFF770FB6410012211460448FFF721
:1010F0006AFB681CC5B2082DE2DB70BD001006401B
:101100000030064070B5002420211148FFF73FFB56
:10111000002518E06410002201210E48FFF753FB60
:10112000012211460B48FFF74EFB20210848FFF72C
:101130002BFB08B144F08004002201210548FFF791
:1011400042FB681CC5B2082DE4DB204670BD0000E0
:1011500000100640003006400E48006810B101281B
:1011600012D109E00C480078042804D10120094973
:1011700008600A4908600BE007480078042802D09C
:1011800000200449086003E000200249086000BF15
:1011900000BF7047DC0000202D010020E800002087
:1011A00070B5002414E004F1B00000F0C3FB10207F
:1011B00000F0C0FB002000F0BDFB002504E0002093
:1011C00000F0F0FB681CC5B2842DF8DB601CC4B2D3
:1011D000092CE8DB70BD00002DE9F04107460E4602
:1011E00015469846002475E0285DB02826DB285D6A
:1011F000F72823DC601C285CA1281FDB285DB038A1
:101200005E2110FB01F036490860601C285C00F28A
:10121000AD2009680844324908600846006840016A
:1012200008604346324639462D48006800F08CF885
:10123000A01CC4B206F11000C6B24BE0285DA12884
:1012400025DB285DA32822DC601C285CA1281EDB8E
:10125000285DA1385E2110FB01F021490860601C67
:10126000285CA138096808441D49086008460068E0
:10127000400108604346324639461948006800F08C
:1012800063F8A01CC4B206F11000C6B222E0285DCB
:1012900020281DDB285D7E281ADC285D20381049B7
:1012A00008600846006800010860084600680D49AB
:1012B00008440B49086043463246394608480068EE
:1012C00000F086F8601CC4B206F10800C6B201E066
:1012D000601CC4B2285D002886DCBDE8F0810000F7
:1012E0000000002080CF03002DE9F04104460025D6
:1012F000FFF756FF00BF1CE0124E56F82460361D63
:1013000056F825200F4E56F824607C36735D0D4E3E
:1013100056F824606836765D761E012707EBC60610
:10132000F1B2084E56F824605436705DFFF754FF52
:101330006D1C044850F824000078A842DCD8BDE8B1
:10134000F0810000B00000202DE9F04704460F4670
:1013500090469946002210211C48FFF734FA0320DA
:1013600000F0BAFAC4F3074000F0B6FAC4F307205D
:1013700000F0B2FAE0B200F0AFFA00251CE07819F4
:10138000414600F01FFA4FF0000A10E000F064F848
:101390000646B9F1000F03D1304600F003FB02E02E
:1013A000F04300F0FFFA0AF1010000F0FF0ABAF181
:1013B000100FEBDB681CC5B2022DE0DB10221146DA
:1013C0000248FFF700FABDE8F08700000060004027
:1013D0002DE9F04704460F46904699460022102119
:1013E0001C48FFF7F0F9032000F076FAC4F3074039
:1013F00000F072FAC4F3072000F06EFAE0B200F0D9
:101400006BFA00251CE07819414600F0DBF94FF03B
:10141000000A10E000F020F80646B9F1000F03D1F1
:10142000304600F0BFFA02E0F04300F0BBFA0AF1E8
:10143000010000F0FF0ABAF1080FEBDB681CC5B22F
:10144000022DE0DB102211460248FFF7BCF9BDE88F
:10145000F08700000060004070B5002400251BE00C
:10146000402211460E48FFF7AEF9002220210C4819
:10147000FFF7A9F96006040E40210948FFF784F937
:1014800010B1601CC4B200E0E4B22022114604484E
:10149000FFF799F9681CC5B2082DE1DB204670BD45
:1014A0000060004010B506209049087090499148AE
:1014B000006800F06FF98E4800688C49486003208E
:1014C00081F8540081F86800002081F87C008A4B84
:1014D0008A4A8B4801688B48006800F049F98748C0
:1014E000016882488160032180F855100B2180F843
:1014F0006910002180F87D108349C160032180F8C4
:1015000056100C2180F86A10002180F87E107A486D
:10151000016876480161032180F857100D2180F899
:101520006B10002180F87F1078494161032180F819
:1015300058100E2180F86C10002180F8801074493A
:101540008161072180F85910012180F86D10002178
:1015500080F8811003206F4908706F4848600320AD
:1015600081F8540081F86800012081F87C006B4903
:1015700068488160052180F85510032180F86910C2
:10158000002180F87D106649C160072180F856105F
:101590000D2180F86A10002180F87E100420614936
:1015A000087061484860032081F85400012081F8E8
:1015B0006800002081F87C005C495D48006800F00C
:1015C000E9F85A48016857488160032180F85510AE
:1015D0000B2180F86910012180F87D105549C16008
:1015E000072180F85610012180F86A10002180F848
:1015F0007E1051490161072180F857100D2180F8B4
:101600006B10002180F87F1007204C4908704C486F
:101610004860032081F85400012081F86800002010
:1016200081F87C00474B484A4848016848480068B0
:1016300000F09EF84448016840488160032180F82A
:1016400055100B2180F86910012180F87D10414967
:10165000C160032180F856100C2180F86A10002127
:1016600080F87E103748016834480161032180F812
:1016700057100D2180F86B10002180F87F1036493B
:101680004161032180F858100E2180F86C10002170
:1016900080F8801031498161072180F859100121BB
:1016A00080F86D10002180F881102D49C16107215B
:1016B00080F85A100D2180F86E10002180F88210F9
:1016C00001202849087028484860032081F8540008
:1016D000012081F86800002081F87C00034823493C
:1016E00008600020FFF700FE10BD00003801002058
:1016F00020000020040000202C00002024000020F6
:1017000014000020100000202800002030000020DD
:1017100033000020C80100203800002042000020D3
:101720004C00002058020020510000205C000020E6
:10173000080000206000002065000020E802002072
:101740006A0000207C000020740000201C000020A3
:101750001800002078000020800000208300002076
:1017600088000020780300208D000020B0000020B9
:1017700030B500F13004054D2C7001F13004044DFA
:101780002C70024C14602C461C6030BD0C000020F4
:101790000E00002020B1012805D0022809D105E063
:1017A000054A0A6006E0054A0A6003E0044A0A6046
:1017B00000E000BF00BF70479C000020A200002096
:1017C000A800002070B505460C46641E05F1AF0068
:1017D00000F0B0F8C4F3031101F1100000F0AAF812
:1017E00004F00F0000F0A6F870BD0000FEF7BEFE8A
:1017F00000BF314800780328FBDBFFF7A9FBFFF7A8
:1018000029F8FFF74FFE56E02C480078012839D11F
:1018100000202A4908702A48007898BB29480068A7
:10182000401C2849086042F21071884202D300200F
:1018300024490860234800684FF47A71B0FBF1F046
:10184000214908701F4800686421B0FBF1F00A21AB
:10185000B0FBF1F201FB12001B4948701948006807
:101860000A21B0FBF1F0B0FBF1F201FB12001649C6
:101870008870144800680A21B0FBF1F201FB1200E5
:101880001149C87011480078012810D100200F4973
:1018900008700F480578002405E00D49601C085CBD
:1018A0000855601CC4B2072CF7DB0948C57109480C
:1018B000006800F059FEA7E70C010020120100208B
:1018C0002D010020180100201C0100201301002020
:1018D00025010020B800002070B50446002521E055
:1018E000002220211148FEF76EFF0A20FFF75DF865
:1018F00004F0800028B1042211460D48FEF763FF72
:1019000004E0002204210A48FEF75DFF6006040E91
:10191000202211460548FEF756FF0A20FFF745F83A
:10192000681CC5B2082DDBDB70BD00000060004004
:101930000010064070B50446002210211648FEF73C
:1019400042FF002202211548FEF73DFF00251BE063
:10195000002220211048FEF736FF04F0800028B155
:10196000102211460E48FEF72EFF04E0002210213F
:101970000B48FEF728FF6000044620221146064867
:10198000FEF721FF681CC5B2082DE1DB10221146CD
:101990000148FEF718FF70BD0050004000100640DF
:1019A0000040024070B50446002210211648FEF7A0
:1019B0000AFF022211461548FEF705FF00251BE02D
:1019C000002220211048FEF7FEFE04F0800028B11E
:1019D000102211460E48FEF7F6FE04E00022102108
:1019E0000B48FEF7F0FE202211460748FEF7EBFEFB
:1019F00060000446681CC5B2082DE1DB10221146C8
:101A00000148FEF7E0FE70BD0050004000100640A7
:101A10000040024010B50D480078B0B100200C49DC
:101A200008600C4908600C4908600C4908600C49C2
:101A3000086001210B4880F881100B4908600020E4
:101A4000FFF752FC01200949086010BD2D0100205C
:101A5000E8000020D8000020F80000200801002045
:101A6000C800002038010020B0000020B80000208D
:101A700010B52248006818B10020204908602AE00B
:101A80001F48006818B100201D49086023E01D4868
:101A9000006818B100201B4908601CE01A48006863
:101AA00018B100201849086015E01848006890B186
:101AB0000020164908600021154880F8811015485B
:101AC000154908600020FFF70FFC0120134908604A
:101AD0000020134908601348007801280CD1002029
:101AE0001049087000210A4880F881100020FFF793
:101AF000FBFB00200A49086010BD0000E800002040
:101B0000D8000020F800002008010020C8000020B4
:101B100038010020C8010020B0000020B4000020DF
:101B2000B80000201401002010B52848006880B1DA
:101B30000020274981F87C000121254880F87E108B
:101B4000002022490860FFF7CFFB022021490860EE
:101B50003AE02148006880B100201D4981F87C00EE
:101B600001211B4880F87D1000201B490860FFF709
:101B7000BBFB01201749086026E01848006818B12F
:101B80000020164908601FE01548006818B10020C1
:101B90001349086018E013480068A8B100201149F3
:101BA00008600B4981F87C000121094880F87E100B
:101BB00002200D4908600120064908600B480C49C5
:101BC00008600020FFF790FB10BD0000E800002037
:101BD000C8010020B8000020D8000020F800002034
:101BE00008010020C8000020B40000205802002096
:101BF000B000002010B52748006880B100212648B9
:101C000080F87D100120244981F87C0000202149C2
:101C10000860FFF769FB00202049086039E0204890
:101C2000006878B100211C4880F87D10012180F8FF
:101C30007E1000201A490860FFF756FB0220174962
:101C4000086026E01748006818B1002015490860B0
:101C50001FE01548006818B100201349086018E01B
:101C600012480068A8B100201049086000210A4805
:101C700080F87D10012180F87E1003200C49086057
:101C80000120064908600B480B4908600020FFF757
:101C90002BFB10BDE8000020C8010020B800002088
:101CA000D8000020F800002008010020C800002013
:101CB000B4000020E8020020B000002010B5274842
:101CC000006878B10021264880F87E10012180F854
:101CD0007D10002021490860FFF706FB0120214903
:101CE00008603AE02048006880B100211C4880F874
:101CF0007E1001201A4981F87C0000201A490860F2
:101D0000FFF7F2FA00201749086026E0174800683C
:101D100018B10020154908601FE01548006818B187
:101D200000201349086018E012480068A8B100209C
:101D30001049086000210A4880F87E1001200849F7
:101D400081F87C0000200C490860064908600B48B7
:101D50000B4908600020FFF7C7FA10BDE80000201B
:101D6000C8010020B8000020D8000020F8000020A2
:101D700008010020C8000020B40000203801002025
:101D8000B000002010B53748006878B1002136480F
:101D900080F87D10012180F87F1000203149086013
:101DA000FFF7A2FA0320314908605AE03048006882
:101DB00078B100212C4880F87D10012180F87E1038
:101DC00000202B490860FFF78FFA0220274908609E
:101DD00047E028480068E8B1002026490860264806
:101DE0000068401C2449086008460068022801DD9C
:101DF00000200860214920480068FFF7CBFC1F48FD
:101E00000168194881600020FFF76EFA0120174928
:101E1000086026E01A480068E8B100201849086008
:101E200015480068401E14490860084600680028EC
:101E300001DA0220086011490F480068FFF7AAFC88
:101E40000E480168084881600020FFF74DFA012024
:101E50000649086005E00B48006810B100200949F8
:101E6000086010BDE800002058020020B8000020E3
:101E7000D8000020F8000020080000205C000020AE
:101E800008010020C800002010B52D48006878B176
:101E900000212C4880F87E10012180F87D10002060
:101EA00027490860FFF720FA01202749086046E02B
:101EB0002648006878B10021224880F87E10012170
:101EC00080F87F10002021490860FFF70DFA0320F9
:101ED0001D49086033E01E48006818B100201C4905
:101EE00008602CE01B48006818B100201949086000
:101EF00025E01948006810B3002017490860002148
:101F0000104880F87E10012180F87D101348006889
:101F100013490860134912480068FFF73BFC114859
:101F20000068114948601148114908600020FFF716
:101F3000DBF901200F49086002200349086010BD49
:101F4000E800002058020020B8000020D80000203F
:101F5000F800002008010020C80000200800002030
:101F6000040000202000002038010020C8010020CB
:101F7000B0000020B400002010B52D48006878B1F2
:101F800000212C4880F87F10012180F87E1000206D
:101F900027490860FFF7A8F902202749086046E0B2
:101FA0002648006878B10021224880F87F1001217E
:101FB00080F87D10002021490860FFF795F9012085
:101FC0001D49086033E01E48006818B100201C4914
:101FD00008602CE01B48006818B10020194908600F
:101FE00025E01948006810B3002017490860002157
:101FF000104880F87F10012180F87D101348006898
:1020000013490860134912480068FFF7C3FB1148E1
:102010000168084881601048104908600020FFF7F7
:1020200063F901200E49086002200349086010BDD1
:10203000E800002058020020B8000020D80000204E
:10204000F800002008010020C80000200400002043
:10205000080000205C000020C8010020B000002023
:10206000B400002010B53B48006878B100213A4820
:1020700080F87D10012180F8821000203549086029
:10208000FFF732F906203549086062E034480068FD
:1020900078B10021304880F87D10012180F87F1050
:1020A00000202F490860FFF71FF903202B49086023
:1020B0004FE02C48006808B300202A4908602A48ED
:1020C0000068401C2849086008460068092801DDAE
:1020D00000200860254B264A2648016822480068EF
:1020E000FFF746FB224801681B4881601F480168D2
:1020F000194801610020FFF7F7F82AE01E48006840
:1021000008B300201C49086017480068401E1649A3
:10211000086008460068002801DA09200860134BAF
:10212000134A1448016810480068FFF721FB104863
:102130000168094881600D48016807480161002075
:10214000FFF7D2F805E00D48006810B100200B49F8
:10215000086010BDE8000020E8020020B800002060
:10216000D8000020F8000020180000207C0000208B
:10217000740000201C00002008010020C80000207E
:1021800010B53B48006878B100213A4880F87F10CC
:10219000012180F87D10002035490860FFF7A4F880
:1021A00001203549086062E03448006878B10021B8
:1021B000304880F87F10012180F8811000202F49DD
:1021C0000860FFF791F805202B4908604FE02C4884
:1021D000006808B300202A4908602A480068401CAB
:1021E0002849086008460068092801DD00200860C9
:1021F000254B264A2348016825480068FFF7B8FAAE
:10220000224801681B4881601F4801681948016124
:102210000020FFF769F82AE01E48006808B3002094
:102220001C49086017480068401E164908600846A7
:102230000068002801DA09200860134B134A11488E
:10224000016813480068FFF793FA104801680948CD
:1022500081600D480168074801610020FFF744F8DC
:1022600005E00D48006810B100200B49086010BD62
:10227000E8000020E8020020B8000020D80000207C
:10228000F80000201C0000207C00002074000020CA
:102290001800002008010020C800002010B54048A8
:1022A000006878B100213F4880F88110012180F852
:1022B0007F1000203A490860FFF716F803203A49DA
:1022C00008606BE03948006878B10021354880F833
:1022D0008110012180F88210002034490860FFF746
:1022E00003F806203049086058E03148006818B10A
:1022F00000202F49086051E02E48006818B10020E6
:102300002C4908604AE02C480068002846D000208C
:10231000294908600021234880F88110012180F8B4
:102320007D102648006830B124480068092811D182
:102330002348006870B104202249086000201A492F
:102340000860214908702148214908600020FEF7F3
:10235000CBFF23E0194800681E4908601848006850
:102360001D4908601D4B1E4A08460168194800684F
:10237000FFF7FEF91A4801681A488160174801689A
:10238000184801611848124908600020FEF7ACFFA8
:1023900001200C49086002200349086010BD0000BC
:1023A000E8000020E8020020B8000020D80000204B
:1023B000F800002008010020C800002018000020BC
:1023C0001C000020B400002015010020780300202C
:1023D000B000002010000020140000202C0000207D
:1023E0002400002038010020C801002010B5334827
:1023F000006878B10021324880F88210012180F80D
:10240000811000202D490860FEF76EFF05202D4940
:10241000086051E02C48006878B10021284880F815
:102420008210012180F87D10002027490860FEF706
:102430005BFF0120234908603EE02448006818B192
:1024400000202249086037E02148006818B10020C8
:102450001F49086030E01F48006868B300201D492C
:1024600008600021164880F88210012180F87D1054
:102470001948006819490860194800681949086036
:10248000194B1A4A0846016814480068FFF770F9AA
:10249000164801680A4881601348016808480161CC
:1024A0001348144908600020FEF71EFF012012495E
:1024B000086002200349086010BD0000E800002009
:1024C000E8020020B8000020D8000020F80000201A
:1024D00008010020C8000020100000201800002083
:1024E000140000201C0000207C000020740000204C
:1024F000C8010020B0000020B400002010B50F4833
:10250000007850B100200E4908600E4908600E495D
:1025100008600E4908600E4908600E4800780128DE
:102520000BD10D480D4908600020FEF7DDFE0320A9
:102530000B49086001200B49086010BD2D010020E7
:10254000E8000020D8000020F8000020080100204A
:10255000C800002015010020E8020020B000002083
:10256000B4000020B800002010B504462E480068D2
:10257000052855D2DFE800F0031022354D0014B1D4
:10258000012C06D102E0FFF745FA03E0FFF770FAED
:1025900000E000BF00BF44E024B1012C05D0022CB4
:1025A00009D105E0FFF7C0FA06E0FFF723FB03E0DF
:1025B000FFF784FB00E000BF00BF32E0012C04D035
:1025C000022C05D0032C09D105E0FFF7DBFB06E068
:1025D000FFF75AFC03E0FFF7CFFC00E000BF00BFAD
:1025E0001FE0012C06D0032C07D0052C08D0062CA8
:1025F0000CD108E0FFF736FD09E0FFF7C1FD06E06A
:10260000FFF74CFE03E0FFF7F1FE00E000BF00BF64
:1026100007E014B9FFF772FF00E000BF00BF00E061
:1026200000BF00BF10BD0000B40000204FF040709C
:10263000E1EE100A7047000000688909001C4E0E88
:1026400040420F0000201C0080841E0000802500F6
:10265000999E36000040380000093D0000803E0091
:1026600000004B00404B4C0000204E00808D5B0072
:1026700000C05D000080700000127A0000007D0044
:1026800080969800001BB7000080BB00C0E8CE0019
:10269000647ADA000024F4000000FA0080A8120135
:1026A000002D310100366E0140787D0140000000B0
:1026B00000000000000100003E00080000000000D3
:1026C00000010000A0000000020000000001000066
:1026D0003454010000000000000100002B700600CF
:1026E00000000000000100002800000000000000C1
:1026F00000010000270001000000000000010000B0
:102700002000000000000000000100005000000058
:1027100002000000000100001AAC000000000000F0
:1027200000010000179409000000000000010000F3
:1027300016980500000000000001000014000000D1
:1027400000000000000100001380080000000000ED
:1027500000010000A00000000800000000010000CF
:102760001000000000000000000100002800000030
:102770000200000000010000400000000400000012
:1027800000010000600000000000000000010000E7
:102790005D000C000000000000010000500000007F
:1027A00000000000000100004E00020000000000D8
:1027B0000001000041AC0100000000000001000029
:1027C0003C00000000000000000100003A80090009
:1027D00000000000000100003000000000000000C8
:1027E00000010000280000000000000000010000BF
:1027F0002700010000000000000100002360060027
:10280000000000000001000021600800000000003E
:10281000000100001E000000000000000001000098
:102820001DC0040000000000000100005000000076
:10283000020000000001000018000000000000007D
:102840000001000014000000000000000001000072
:102850006000000004000000000100000024F400FB
:1028600030003000005A620291009100008793030B
:10287000D200D20000B4C4041301130100E1F50535
:1028800054015401000E270795019501AC28000062
:1028900000000020380100003C0200000829000070
:1028A000380100203005000098020000C11A3102F2
:1028B0003201A90481722E13487A15C9E8D6C338AB
:1028C0000AB9A4D7F7C4A3CABD3A0A16B2CECAFD44
:1028D0003A9DB7B5BBD8195115C8B7B6A89DC8A1C0
:1028E000CFFB28D95009102317B2BBBACFB7A829FC
:1028F000473A41063A4206026F431A20011A5F0224
:082900004B040101911324F4C2
:0400000500000309EB
:00000001FF
