:020000040000FA
:10000000180E002011030000190300001B0300005C
:100010001D0300001F03000021030000000000007A
:1000200000000000000000000000000023030000AA
:100030002503000000000000270300000910000055
:100040002B0300002D0300002F03000031030000EC
:1000500033030000350300003703000039030000BC
:100060003B0300003D0300003F030000410300008C
:10007000430300004503000047030000490300005C
:100080004B0300004D0300004F030000510300002C
:1000900053030000651400005703000059030000DB
:1000A0005B0300005D0300005F03000061030000CC
:1000B000630300006503000067030000690300009C
:1000C0006B0300006D0300006F030000710300006C
:1000D000730300007503000077030000790300003C
:1000E0007B0300007D0300007F030000810300000C
:1000F00083030000850300008703000089030000DC
:100100008B0300008D0300008F03000091030000AB
:10011000930300009503000097030000990300007B
:100120009B0300009D0300009F030000F5180000E2
:10013000A3030000A5030000A7030000A90300001B
:10014000AB030000AD030000AF030000C9030000D3
:100150000000000000000000CB030000CD03000001
:10016000CF030000D103000000000000D303000013
:10017000D5030000D7030000D9030000DB03000013
:10018000DD030000DF030000E1030000E3030000E3
:10019000E5030000E7030000E9030000EB030000B3
:1001A000ED030000EF030000F1030000F303000083
:1001B000F5030000F7030000F9030000FB03000053
:1001C000FD030000FF030000010400000304000021
:1001D0000504000007040000090400000B040000EF
:1001E0000D0400000F0400001104000013040000BF
:1001F0001504000017040000190400001B0400008F
:1002000000F002F800F05CF80AA090E8000C8244CC
:100210008344AAF10107DA4501D100F051F8AFF2A9
:10022000090EBAE80F0013F0010F18BFFB1A43F0D4
:1002300001031847BC2C0000DC2C00000A444FF0DE
:10024000000C10F8013B13F0070408BF10F8014B35
:100250001D1108BF10F8015B641E05D010F8016B7A
:10026000641E01F8016BF9D113F0080F1EBF10F8DE
:10027000014BAD1C0C1B09D16D1E58BF01F801CB01
:10028000FAD505E014F8016B01F8016B6D1EF9D584
:100290009142D6D370470000002300240025002699
:1002A000103A28BF78C1FBD8520728BF30C148BFD9
:1002B0000B6070471FB502F037FB1FBD10B510BDB6
:1002C00000F0BFF81146FFF7F5FF01F0CFFD00F099
:1002D000DDF803B4FFF7F2FF03BC00F0E5F800001F
:1002E0000138FDD170470000EFF3108072B67047FF
:1002F000EFF310807047EFF3108062B6704730BFA5
:10030000704780F311887047EFF311807047000049
:100310004548804745480047FEE7FEE7FEE7FEE721
:10032000FEE7FEE7FEE7FEE7FEE7FEE7FEE7FEE7A5
:10033000FEE7FEE7FEE7FEE7FEE7FEE7FEE7FEE795
:10034000FEE7FEE7FEE7FEE7FEE7FEE7FEE7FEE785
:10035000FEE7FEE7FEE7FEE7FEE7FEE7FEE7FEE775
:10036000FEE7FEE7FEE7FEE7FEE7FEE7FEE7FEE765
:10037000FEE7FEE7FEE7FEE7FEE7FEE7FEE7FEE755
:10038000FEE7FEE7FEE7FEE7FEE7FEE7FEE7FEE745
:10039000FEE7FEE7FEE7FEE7FEE7FEE7FEE7FEE735
:1003A000FEE7FEE7FEE7FEE7FEE7FEE7FEE7FEE725
:1003B000FEE7FEE7FEE7FEE7FEE7FEE7FEE7FEE715
:1003C000FEE7FEE7FEE7FEE7FEE7FEE7FEE7FEE705
:1003D000FEE7FEE7FEE7FEE7FEE7FEE7FEE7FEE7F5
:1003E000FEE7FEE7FEE7FEE7FEE7FEE7FEE7FEE7E5
:1003F000FEE7FEE7FEE7FEE7FEE7FEE7FEE7FEE7D5
:10040000FEE7FEE7FEE7FEE7FEE7FEE7FEE7FEE7C4
:10041000FEE7FEE7FEE7FEE7FEE7FEE704480549E4
:10042000034A054B7047000045140000010200001C
:10043000180C0020180E0020180C00207047704780
:100440007047754600F02CF8AE46050069465346E5
:1004500020F00700854618B020B5FFF7DFFFBDE8A4
:1004600020404FF000064FF000074FF000084FF01B
:10047000000B21F00701AC46ACE8C009ACE8C009AC
:10048000ACE8C009ACE8C0098D46704710B5044619
:10049000AFF300802046BDE81040FFF71ABF000010
:1004A00000487047B40B002001491820ABBEFEE79E
:1004B000260002007047000010B50F4800F056FDFE
:1004C0000E4800F053FD02210D4800F022FA0023EF
:1004D0001A4603210B4800F043F86223002203214F
:1004E000084800F086F80321064800F07BF8032155
:1004F000044800F009F810BD003800F0040800F0CE
:100500000040024000800340012202FA01F1C16074
:10051000704732B1C0684FF0011202FA01F1084091
:100520007047406801228A4042F48032104010F443
:10053000803F08BF704740F470204FF4803202FAC9
:1005400001F1884370470A4601F00F0101236FF360
:100550000F0203FA01F11143826A1143816270476D
:1005600030B4446989004FF00F0C0CFA01FC02F022
:100570000F0524EA0C048D402C434461046A03F007
:10058000030324EA0C0C03FA01F14CEA01010162B5
:1005900002F00F018B1F032B84BF30BC7047C900D2
:1005A000C3694FF0300C30390CFA01FC02F0300214
:1005B00023EA0C0302FA01F11943C16130BC704710
:1005C00000EB411000F14001002003E08B6842F88D
:1005D000043B401CCB6813F4807F18BF7047082889
:1005E000F4D370470268012303FA01F1114301605B
:1005F000704710B400EB4110910050F840CF0F222B
:100600008A4003F00F042CEA020C8C404CEA040CE4
:10061000C0F800C0D0F818C0C3F303242CEA020CC1
:100620008C404CEA040CC0F818C0D0F804C0C3F3E6
:1006300003142CEA020C8C404CEA040CC0F804C0F1
:10064000D0F81CC0C3F303542CEA020C8C404CEAD3
:10065000040CC0F81CC013F4702F4FF001040DD02F
:10066000D0F814C0C3F302432CEA02028B401A43B1
:100670004261026904FA01F1114304E0026904FADB
:1006800001F122EA0101016110BC704708B50321A4
:100690000A48FFF758FF00BF002203210748FFF771
:1006A00038FF0028F8D003210448FFF72DFF6A46E1
:1006B00003210248FFF784FF009808BD0080034033
:1006C00010B51349134800F0DFFA134908600846D3
:1006D00000681249086000F037F8FFF7EDFE01F0FE
:1006E00069F801F091F801F069F900F071FC00F08F
:1006F00099F90021252000F09DF90121232000F027
:1007000099F9E0210F2000F095F900F057FA10BD9B
:10071000002D3101800600F17004002074040020D7
:10072000D0F8003412F0010F14BF0B438B43C0F814
:10073000003412F0020FD0F8202414BF114322EA33
:100740000101C0F82014704710B50E4800F00EFCEF
:1007500000BF0C4800F01EFC0028FAD00948801C9D
:1007600000F004FC00BF0748801C00F013FC0028C8
:10077000F9D03021044800F0E8F80121034800F0E6
:10078000E4F810BD090800F00010064000300640F3
:100790002DE9F00301264FF0000C0325C2F34117A9
:1007A00006FA0CF40C4211D0D0F8C48F4FEA4C0476
:1007B00005FA04F928EA0908C0F8C48FD0F8C48FF4
:1007C00007FA04F448EA0404C0F8C44F0CF1010C21
:1007D0000CF0FF0CBCF1080FE2D3D0F800C512F00A
:1007E000010F14BF4CEA010C2CEA010CC0F800C543
:1007F000D0F804C512F0020F14BF4CEA010C2CEA29
:10080000010CC0F804C5D0F808C512F0040F14BFDD
:100810004CEA010C2CEA010CC0F808C5D0F818C548
:1008200012F0080F14BF4CEA010C2CEA010CC0F8BE
:1008300018C512F0100FD0F83C2514BF0A438A43A4
:10084000C0F83C25D0F80C2513F0010F14BF0A4363
:100850008A43C0F80C25D0F8102513F0020F14BFFE
:100860000A438A43C0F81025D0F8142513F0040F6A
:1008700014BF0A438A43C0F81425D0F81C2513F08E
:10088000080F14BF0A438A43C0F81C25D0F844253A
:1008900013F4007F14BF0A438A43C0F84425D0F8FC
:1008A000402513F4407F14BF0A438A43C0F8402513
:1008B000D0F82825002B0CBF114322EA0101C0F813
:1008C0002815BDE8F00370470E4AC0F30741D26E09
:1008D00001238B401A420C4A1ABF02EBC10149683E
:1008E00052F83110020AD1F82C354FF00F0C0CFAE7
:1008F00002FC00F00F0023EA0C0390401843C1F8FB
:100900002C05704700E00F40CC2A000050F8210071
:10091000704730B50C4605460022FFF701FF21461F
:100920002846BDE8304000230122FFF731BF30B533
:100930000C4605460022FFF7F3FE21462846BDE897
:10094000304008230122FFF723BF30B50C4605468F
:1009500008230122FFF71CFF21462846BDE830404E
:100960000122FFF7DDBE30B50C4605460222FFF737
:10097000D7FE21462846BDE8304008230122FFF774
:1009800007BF30B50C4605460222FFF7C9FE2146D7
:100990002846BDE8304008230122FFF7F9BE30B5F4
:1009A0000C4605460222FFF7BBFE21462846BDE85D
:1009B000304008230122FFF7EBBE40F821207047AA
:1009C0001649042804BF086840F4803018D0052870
:1009D00004BF086840F4003012D0062812D00F2857
:1009E00015D0102838BF7047103800F01F010122C1
:1009F00002FA01F142090A4850F8220001607047EA
:100A000008607047086840F48020086070474FF025
:100A1000E020016941F002010161704724ED00E02E
:100A2000182C000010B5FFF766FC002818BF012045
:100A300010BD0000084A20F00303D2581368800755
:100A4000C00E4FF0FF0C0CFA00FC23EA0C0301FA75
:100A500000F01843106070477C2B000010B5274849
:100A600000F084FA00BF254800F094FA0028FAD07C
:100A70002248C01D00F07AFA00BF2048C01D00F0D7
:100A800089FA0028F9D01D48401E00F06FFA00BF17
:100A90001A48401E00F07EFA0028F9D01748801C42
:100AA00000F064FA00BF1548801C00F073FA0028BB
:100AB000F9D007211248FFF748FF30211148FFF70E
:100AC00044FF30211048FFF740FF10210F48FFF787
:100AD0003CFF40210B48FFF72AFF0848C01C00F0EC
:100AE00045FA00BF0548C01C00F054FA0028F9D0B0
:100AF00002210748FFF729FF10BD0000020800F09F
:100B000000100640006000400050004000400240DD
:100B10000050024070B50446002202210948FFF748
:100B20004CFF002505E0002600E0761C6E2EFCDB65
:100B30006D1CA542F7DB022211460248FFF73DFF7C
:100B400070BD000000500240002105E0002200E0DE
:100B5000521C012AFCDB491C8142F7DB7047084428
:100B600001686FF352011143016012F0020F14BFCC
:100B7000B0218C21016214BF4FF4306140F60C01AA
:100B800041627047425822F0010242507047425879
:100B900042F001024250704708440168006911F0B8
:100BA000020F14BF4000401C70470844016811F058
:100BB000020F14BF5108511E0161704710B50C4857
:100BC00000F0D4F9012208210A4800F01BF80A4875
:100BD00000F0CCF90948FFF777FE08210848FFF735
:100BE000C2FE002280210348FFF7B9FF10BD0000BC
:100BF000004000F000800240050800F0060C0500EF
:100C000000500240002A826814BF114322EA010109
:100C10008160704721F03F031844036813F0020F0E
:100C200018BF520803699A1A11F0010F14BFC2616C
:100C30008261704770B5044680210D48FFF7A2FF1E
:100C40000C480068B0FBF4F52A4680210848FFF7FD
:100C5000ACFF80210648FFF79FFF45082A46832105
:100C60000348FFF7D7FF80210148FFF790FF70BDD1
:100C7000008002407404002010B580210148FFF775
:100C800081FF10BD008002402DE9F003AD4D02460A
:100C90002868AD4B1840A0F18053B3F5A02358D07D
:100CA00002F03809DFF8A482C2F38414B9F1100FFE
:100CB00024D0B9F1300F04BF47F230504FF4001385
:100CC0000CD03820904304BF4FF40040C30105D03E
:100CD00012F0380F1CBF0020034613D09C4F12F4B3
:100CE000605F4FF0000618BF00222CD057F832404A
:100CF00044457DD307EBC2025268DFE00023404643
:100D00001524EBE7A4F10900122822D29148D5F866
:100D10007CC04FF04C7350F824002CF01C0C072CB6
:100D2000A8BF4CF0100CC5F87CC02E6D4FF4002C01
:100D300016F4807FD2D1BCF1010C0AD02E6D16F4CE
:100D4000807FF8D0CAE712F0380F18BFB9F1100F42
:100D500003D0BDE8F00300207047C2F30268DFF85B
:100D6000F8C1002257F83290E14503D307EBC202E5
:100D7000526803E0521C062AF4D33246C5F8C0205C
:100D8000D5F8B020DFF8D4C102EA0C0242F00042EC
:100D9000C5F8B020DFF8C8C1A4F109024C1E5CF808
:100DA00028C0A444BCFBF1FCD5F8B0101943C5F829
:100DB000B01008EBC80101EB41046A4902EB4202A2
:100DC00001EBC40101EB82046468C5F86441D5F805
:100DD00064416FF0FF0808EB0C2C44EA0C0CC5F8DA
:100DE00064C151F82210D5F8602102F4000200E03D
:100DF0005FE01143C5F86011D5F86011D5F86021A6
:100E0000C1F38921C2F30904D5F86421C2F3042295
:100E100002F1010CD5F8642102F01F02521CB0FB54
:100E2000F2F04A09C2F100084443424301EB481181
:100E300004EB5212484302EB9020B0FBFCF0410857
:100E40000846002257F832C0844503D307EBC2009E
:100E5000466802E0521C062AF4D3C5F8C060D5F8F3
:100E6000600110F4000F1DBFD5F8B00040F08040C5
:100E7000C5F8B000D5F8600104BF40F40000C5F823
:100E800060014FF40040D5F8682112F0010F02D143
:100E9000401E0028F7DC002808BF002148D0D5F804
:100EA000B000184340F0010040F01040C5F8B00019
:100EB0003EE0521C062AFFF419AF3246C5F8C020A6
:100EC000D5F8602122F40002C5F86021D5F8B020E1
:100ED000DFF894C002EA0C0242F00042C5F8B020EC
:100EE000002908BF4FF0000C0AD0B0FBF1FCBCF1A8
:100EF000000F18BFACF1010C0CF10101B0FBF1F1D6
:100F00000846002257F83240844203D307EBC20060
:100F1000466802E0521C062AF4D3C5F8C060D5F832
:100F2000B00043EA8C22104340F00040C5F8B00006
:100F3000D5F8B00020F47000C5F8B000BDE8F003AB
:100F40000846704700E00F400000FF700024F400E6
:100F50008C2E0000702C000040787D0100FC0FE01A
:100F6000682C0000DC2C0000FF0300EFC0F3072317
:100F70000749C0B2194401F07043C1F3130143EAB9
:100F8000411141EA800040F0007001220260704788
:100F900000E60F40C0F307220849C0B2114401F037
:100FA0007042C1F3130142EA411141EA800040F06E
:100FB00000700068002818BF0120704700EA0F4049
:100FC0004FF0E020016941F0050101617047000028
:100FD00010B5064800683221B0FBF1F4204600F05D
:100FE0000EF8FFF7EDFF00F003F810BD70040020CD
:100FF0004FF0E020016941F00201016170474FF0BC
:10100000E021401E4861704770B5F448057800241F
:10101000F3480078401CC0B2F1490870052805DB90
:101020000120F04908700020ED490870EE48007872
:10103000401CC0B2EC490870192805DB0120EB49BF
:1010400008700020E8490870E9480078401CC0B2E8
:10105000E7490870032805DB0120E64908700020F5
:10106000E3490870E4480078401CC0B2E2490870C7
:10107000642805DB0120E14908700020DE49087082
:10108000DF480078401CC0B2DD490870FA2805DB53
:101090000120DC4908700020D9490870DA4800882E
:1010A000401C80B2D8490880B0F5FA7F05DB0120EA
:1010B000D64908700020D4490880D5480078401CE3
:1010C000C0B2D3490870142805DB0120D14908704B
:1010D0000020CF490870D04AD0480178D04800F0AD
:1010E000C7FA00F075FABD490870012D09D008460D
:1010F0000078012805D1CB48007880F00100C9496B
:101100000870032D0CD0B5480078032808D1C648D4
:10111000007880F00100C44908700020C3490860CD
:10112000E5B9AE480078C8B1C1480078B0B9C14847
:10113000007898B90120BE4908700020BD490870A8
:10114000002405E0BC48005DBC490855601CC4B2E1
:10115000042CF7DB0120BA49087070BD082D59D066
:101160009E480078082855D1B1480078012810D150
:10117000B048007868B9B148007809300A2190FB7E
:10118000F1F201FB1200AD4908700120AC49087072
:1011900040E0A7480078012811D1A648007801282E
:1011A0000DD1A648407809300A2190FBF1F201FBED
:1011B0001200A24948700120A14908702AE09C4809
:1011C0000078012811D19B48007802280DD19B4856
:1011D000807809300A2190FBF1F201FB1200974957
:1011E000887001209649087014E091480078012821
:1011F00010D19048007803280CD19048C07809306D
:101200000A2190FBF1F201FB12008C49C870012009
:101210008B490870022D59D070480078022855D1AA
:1012200083480078012810D18248007868B9834843
:101230000078401C0A2190FBF1F201FB12007F496B
:10124000087001207E49087040E079480078012844
:1012500011D17848007801280DD178484078401C99
:101260000A2190FBF1F201FB120074494870012041
:10127000734908702AE06E480078012811D16D4842
:10128000007802280DD16D488078401C0A2190FB1F
:10129000F1F201FB12006949887001206849087069
:1012A00014E063480078012810D1624800780328D0
:1012B0000CD16248C078401C0A2190FBF1F201FB7E
:1012C00012005E49C87001205D490870042D16D0D7
:1012D00042480078042812D15548007801280DD1E1
:1012E00054480078001D052190FBF1F201FB12002B
:1012F0005049087001205249087000BF00BF062DF8
:1013000016D036480078062812D1494800780128BE
:101310000DD148480078401C052190FBF1F201FBFB
:1013200012004449087001204549087000BF00BF01
:10133000052D51D02948007805284DD13C4800782A
:10134000012849D13B480078042845D13B48007822
:101350004FF47A7110FB01F038494978642212FB8E
:101360000100364989780A2212FB01003349C97805
:10137000084486B2B6F55C7F1ADBB6F5876F17DCDA
:10138000002405E02D48005D2B490855601CC4B2BF
:10139000042CF7DB284801F0EDF9002024490870FF
:1013A0002449087001202649087000F0B3FB12E0C0
:1013B000002405E02048005D20490855601CC4B2A7
:1013C000042CF7DB02201A49087000201949087024
:1013D00001201B49087000BF00BFBEE66D0400205D
:1013E000450400204C040020460400204D04002049
:1013F000470400204E040020480400204F04002031
:1014000049040020500400204A0400205104002018
:1014100044040020520400206504002064040020DD
:101420005C040020CC040020CD040020D004002067
:101430005404002055040020B0040020B40400200F
:10144000560400200448006840F470000249086017
:10145000024803490860704788ED00E00024F4006A
:10146000D404002010B501210A4800F02FFA0A48E0
:1014700000680A490860FF21094800F036FA064969
:101480000860FF21064800F012FA012005490870A3
:1014900010BD000000100340C8040020C404002058
:1014A00000000340C0040020014600202D2956D032
:1014B00014DC212976D2DFE801F030323436383AB4
:1014C0003C3E40424446484A4C4E757575757575AC
:1014D0007575757575757575757554004C294ED093
:1014E0000ADCA1F14102092A5CD2DFE802F03E5B8E
:1014F000594E4C443C524000592948D006DC4E29F4
:1015000037D052293DD055294CD136E05F2924D01F
:10151000622943D06F2945D13EE03F2044E00620B8
:1015200042E05B2040E04F203EE066203CE06D2042
:101530003AE07D2038E0072036E07F2034E06F205D
:1015400032E0772030E07C202EE039202CE05E2055
:101550002AE0792028E0712026E0082024E04020BD
:1015600022E0002020E03D201EE077201CE0062045
:101570001AE0372018E0712016E03E2014E03820F1
:1015800012E0502010E079200EE05E200CE06E208A
:101590000AE0762008E005E05C2005E07C2003E01E
:1015A000392001E0002000BF00BF704710B50022C5
:1015B00010210648FFF701FA8A2000F0A7F8102250
:1015C00011460248FFF7F9F910BD0000001006406F
:1015D00038B50025002210212448FFF7EEF94220FB
:1015E00000F094F8002401E0601CC4B2052CFBDB81
:1015F000002405E000F0B4F80DF80400601CC4B24B
:10160000042CF7DB102211461848FFF7D6F99DF895
:101610000000042800D101259DF80000022800D117
:1016200002259DF80000012800D103259DF8000047
:10163000402800D104259DF80000202800D1052570
:101640009DF80000102800D106259DF8010004280F
:1016500000D107259DF80100022800D108259DF83A
:101660000100012800D10925284638BD0010064098
:101670002DE9FF4105460E4617464FF001080024AC
:1016800019E0285DFFF710FF0DF8140006EA0800C6
:1016900028B11DF8140040F080000DF814004FEA46
:1016A00048604FEA1068385D012101EB44010DF8F4
:1016B0000100601CC4B2082CE3DB00221021124898
:1016C000FFF77BF9402000F021F8102211460E4868
:1016D000FFF773F9002210210B48FFF76EF9C020C5
:1016E00000F014F8002405E01DF8040000F00EF8E6
:1016F000601CC4B2102CF7DB102211460248FFF721
:101700005CF9BDE8FF8100000010064070B504469A
:1017100020211148FFF719F900251AE000220121C4
:101720000E48FFF74AF904F0010028B120221146C3
:101730000948FFF742F904E0002220210648FFF79C
:101740003CF96410012211460448FFF736F9681C81
:10175000C5B2082DE2DB70BD001006400030064027
:1017600070B5002420211148FFF7E1F8002518E0AA
:101770006410002201210E48FFF71FF901221146D3
:101780000B48FFF71AF920210848FFF7BFF808B106
:1017900044F08004002201210548FFF70EF9681C7F
:1017A000C5B2082DE4DB204670BD000000100640E5
:1017B0000030064010B50E48FFF7D8FB0D48FFF784
:1017C000D5FB0D48FFF780F810210C48FFF7D9F83A
:1017D0000A23012210210948FEF7DAFF08490948C7
:1017E00000F02CF80022FF21064800F057F810BD49
:1017F000000400F00A0800F003100A000020064070
:10180000130000040000034010B50948FFF7AEFBC9
:101810002121084800F012F8074800680A21B0FBAF
:10182000F1F0441E2246FF21024800F055F810BD99
:10183000010400F0001003407004002010B4C268DE
:1018400022F0010222F48072C2600A0E0260114A84
:101850001268114B02EA030CACF18054CBB2C1F315
:101860000722B4F5202407D043F40071416042F40C
:101870000071816010BC70474FF4704C0CEA111479
:10188000234343F4007343600CEA1121114341F4F4
:101890000071EEE700E00F400000FF7040F60C43DF
:1018A0001940C3688B4311401943C1607047C26837
:1018B00040F20113194022EA0101C1607047C26879
:1018C00040F2011319401143C160704741627047F3
:1018D000826911438161704711F0FF0F18BF826266
:1018E00011F47F4F18BFC2627047FF290CBF806C94
:1018F000C06C704710B50121084800F0D1F80446CB
:101900002146064800F0C6F80549044800F0CEF824
:101910000349044800F0E6F810BD00000020014033
:10192000D804002000C00040816911F0100F0CBFE6
:1019300000684FF0FF307047826912F0200FFBD132
:10194000016070478069012121EA10107047D0F8CA
:1019500018C01CF0080FFAD1D0F82CC02CF0100CD5
:10196000C0F82CC0D0F830C02CF0010C2CF4407C16
:10197000C0F830C0D0F830C0B1EB021F34BF4CF01B
:10198000200C2CF0200CC0F830C038BF5208C90021
:10199000B1FBF2F1491C49088A09426201F03F019A
:1019A0008162C36200218161C16A41F01001C1629C
:1019B000016B40F2013211430163704710B52A48B0
:1019C000FFF7D4FA2948FFF7D1FA00BF2748FFF7FD
:1019D000E1FA0028FAD02648FEF776FF2548FEF700
:1019E00073FF03212448FEF7DAFF60234FF41652F9
:1019F000224801682248FFF7AAFF4B20FEF7E0FFCC
:101A000050211F4800F048F81748801FFFF7AEFA32
:101A100016480D38FFF7AAFA00BF14480D38FFF733
:101A2000B9FA0028F9D00120FEF74EFF40F201403C
:101A3000FEF74AFF03214FF04020FEF7B0FF60237E
:101A40004FF4E1320D4801680E48FFF780FF0EA108
:101A50000C4800F047F81520FEF7B2FF5021094866
:101A600000F01AF810BD0000061800F00D0800F094
:101A700001000D0001040D0000500640700400201C
:101A80000020014000C0004048656C6C6F2C203283
:101A90004121000041647047826B114381637047AC
:101AA000002914BF006CC06B7047000070B505467C
:101AB0000C460DE02846FFF737FF2070641C0848ED
:101AC000006840F6B831B0FBF1F63046FEF708FC8E
:101AD0002846FFF737FF0028ECD1207070BD0000CA
:101AE0007004002070B505460C460DE014F8011B8B
:101AF0002846FFF721FF0648006840F6B831B0FBE2
:101B0000F1F63046FEF7ECFB20780028EED170BDF0
:101B10007004002070B5002414E004F1B00000F05F
:101B200093FE102000F090FE002000F08DFE0025B6
:101B300004E0002000F0C0FE681CC5B2842DF8DB74
:101B4000601CC4B2092CE8DB70BD00002DE9F04137
:101B500007460E4615469846002475E0285DB028D5
:101B600026DB285DF72823DC601C285CA1281FDB0E
:101B7000285DB0385E2110FB01F036490860601C1A
:101B8000285C00F2AD200968084432490860084624
:101B90000068400108604346324639462D480068D7
:101BA00000F05CF8A01CC4B206F11000C6B24BE015
:101BB000285DA12825DB285DA32822DC601C285C89
:101BC000A1281EDB285DA1385E2110FB01F0214910
:101BD0000860601C285CA138096808441D49086039
:101BE00008460068400108604346324639461948B5
:101BF000006800F033F8A01CC4B206F11000C6B2B1
:101C000022E0285D20281DDB285D7E281ADC285D67
:101C1000203810490860084600680001086008463E
:101C200000680D4908440B4908604346324639466E
:101C30000848006800F058F8601CC4B206F10800BB
:101C4000C6B201E0601CC4B2285D002886DCBDE895
:101C5000F08100004000002080CF03002DE9F04714
:101C600004460E4617469846002210211D48FEF7EE
:101C7000A4FE032000F0BAFDC4F3074000F0B6FD57
:101C8000C4F3072000F0B2FDE0B200F0AFFD002584
:101C90001EE07019394600F0D5F84FF0000912E047
:101CA000B8F1000F05D000F065F8C04300F0FF0A5E
:101CB00002E000F05FF88246504600F0FDFD09F1B9
:101CC000010000F0FF09B9F1100FE9DB681CC5B293
:101CD000022DDEDB102211460248FEF76EFEBDE843
:101CE000F0870000006000402DE9F04704460E46F2
:101CF00017469846002210211D48FEF75EFE03207D
:101D000000F074FDC4F3074000F070FDC4F3072039
:101D100000F06CFDE0B200F069FD00251EE07019D6
:101D2000394600F08FF84FF0000912E0B8F1000FCB
:101D300005D000F01FF8C04300F0FF0A02E000F0F9
:101D400019F88246504600F0B7FD09F1010000F095
:101D5000FF09B9F1080FE9DB681CC5B2022DDEDB13
:101D6000102211460248FEF728FEBDE8F087000069
:101D70000060004070B50024002516E000222021FC
:101D80000C48FEF71AFE6006040E40210948FEF7D3
:101D9000BDFD10B1601CC4B200E0E4B220221146C7
:101DA0000448FEF70AFE681CC5B2082DE6DB204693
:101DB00070BD00000060004010B5FEF74FFE00222D
:101DC00001211F48FEF7F9FD6420FEF7A3FE012262
:101DD00011461B48FEF7F1FD6420FEF79BFEE22052
:101DE00000F032FD0520FEF795FE2C2000F02CFDC2
:101DF0003220FEF78FFE2E2000F026FD3220FEF767
:101E000089FE2F2000F020FD0520FEF783FE232011
:101E100000F01AFD812000F017FD282000F014FDCD
:101E2000A22000F011FDC82000F00EFDA02000F05F
:101E30000BFD402000F008FDAF2000F005FD10BDB7
:101E40000010064070B505460C46641E05F1AF0053
:101E500000F0FAFCC4F3031101F1100000F0F4FCEF
:101E600004F00F0000F0F0FC70BD0000FEF728FC4D
:101E700000BFFE4800780328FBDBFFF797FBFFF766
:101E80009BFFFFF747FEFA48FA490860FA484861A5
:101E9000FA49F8488161FA49C161FA490162FA498F
:101EA0004162FA48F3498862F9480088642190FB4E
:101EB000F1F0F84951F82000F7490860F44800882B
:101EC0000A2190FBF1F090FBF1F201FB1200F149C5
:101ED00051F82000F0494860ED4800880A2190FB45
:101EE000F1F201FB1200EB4951F82000EA49886049
:101EF000EA4800F03FFCEAA1EC48FFF7F3FD31E2CD
:101F0000EB480078012853D10020E9490870FEF71A
:101F1000BDFBE84908600846006840F6E4414843D4
:101F200040F6FF71B0FBF1F0E34908600846006835
:101F30004FF47A71B0FBF1F00A21B0FBF1F201FB32
:101F40001200D44951F82000DC490860DA480068E2
:101F50006421B0FBF1F00A21B0FBF1F201FB1200A9
:101F6000CC4951F82000D5494860D34800680A217F
:101F7000B0FBF1F0B0FBF1F201FB1200C54951F8E2
:101F80002000CE498860CC4800680A21B0FBF1F2FD
:101F900001FB1200BF4951F82000C849C860C84879
:101FA000007828B9C748007810B90120C6490870E0
:101FB000C6480078012810D10020C4490870C448E0
:101FC0000678002505E0C249681C085C4855681C75
:101FD000C5B2072DF7DBBE48C671BE48007888B988
:101FE0000121BD48FFF774FC2520FEF7E9FCFF2125
:101FF000B948FFF764FCFF21B848FFF760FC0120F7
:10200000B4490870B648007801287DD10020B14954
:102010000870B3490870B3480068B349096888423A
:1020200005D3B0480068B0490968401A08E0AE48D6
:1020300000684FF6FF71081AAA4909680844401C55
:10204000044604EB84008400B4F5967F68D3B4F5AD
:102050007A6F65D84FF47A70B4FBF0F00A21B0FBC8
:10206000F1F201FB1200A14908716420B4FBF0F009
:102070000A21B0FBF1F201FB12009C4948710A20D1
:10208000B4FBF0F00A21B0FBF1F201FB120097491A
:1020900088710A20B4FBF0F100FB11409349C8712C
:1020A000B4F5967F09D3A4F596704FF4C8714843F0
:1020B00040F67461B0FBF1F000E000207449088044
:1020C00008460088642190FBF1F0724951F8200025
:1020D000714908606E4800880A2190FBF1F090FB7E
:1020E000F1F201FB12006B4951F820006A49486087
:1020F000674800880A2190FBF1F201FB1200654954
:1021000051F82000644900E077E088606C4800786E
:10211000F0B96C480078D8B901206B49087017E015
:102120004520724908715220487188712020C87179
:102130006FA0594908606FA048606DA08860604832
:10214000007828B95F48007810B901205E4908700E
:102150006948007848B96948007818B12046FEF708
:1021600069FD23E0FEF788FD20E06549654A1268B5
:1021700051F82200FEF75EFD62480068401C61498C
:10218000086008460068B0F5C87F0FDB00200860D3
:10219000FEF772FD5C48006840000321B0FBF1F7D8
:1021A0003846FEF79DF800205349087057480078DC
:1021B00018B354480068B0F5C87F0ADA504851494E
:1021C000096840F821404F480068401C4D490860AC
:1021D00013E000204B490860FEF74EFD4A480068B6
:1021E00040000321B0FBF1F73846FEF779F80120F3
:1021F000414908700020454908703348007838B9D3
:102200004348007800282FD04248007800282BD07F
:102210003F48007850B13F48007838B10120284944
:1022200008700020274908703949087000202649A5
:102230000870002509E03848405D164951F8200033
:10224000364941F82500681CC5B2042DF3DB022293
:1022500011463348FEF7B1FB1948007800EB8000C7
:10226000044901EB80005DE07CE0000045040020B3
:102270008D2300003805002001240000A92400005F
:1022800051250000F9250000A12600004927000083
:10229000AE040020840400201C050020B0040020AF
:1022A00041542B564F4C3D31350000000020014079
:1022B00052040020B8040020BC0400200C050020BB
:1022C0005404002055040020560400204D04002032
:1022D00065040020CF0400200010034000000340EC
:1022E000C0040020C8040020C40400205C040020B6
:1022F0004E00000061000000CE040020CC0400204D
:1023000074050020D004002070040020CD040020BB
:10231000530400204F040020B404002028050020AE
:10232000005002401049097850F821300F4A1049F6
:10233000104898471048007802280BD10A480078C6
:1023400040B901200D49087000200D4908700D4961
:10235000087002E0002009490870002202210A48A2
:10236000FEF72BFBCCE500005504002028050020DB
:102370001C0500200C0500205404002053040020FC
:10238000480400204F0400200050024070B505466C
:102390000C461646002315A201210320FFF7D6FBA9
:1023A0000023512103202268FFF7D0FB002359218D
:1023B00003206268FFF7CAFB00230EA261210320FD
:1023C000FFF7C4FB002369210320A268FFF7BEFBCF
:1023D000002309A271210320FFF7B8FB002307A205
:1023E00079210320FFF7B2FB70BD0000CEC2B6C852
:1023F0003A0000002E000000A1E3000043000000AE
:1024000070B505460E461446FFF784FB00231EA256
:1024100001210846FFF79AFB01232921184622686B
:10242000FFF794FB0023312101206268FFF78EFB48
:10243000002339210120A268FFF788FB002314A2A2
:1024400041210120FFF782FB002349210120E2689E
:10245000FFF77CFB00230FA251210120FFF776FB41
:1024600000230DA259210120FFF770FB00230BA2CE
:1024700061210120FFF76AFB002309A261210720E7
:10248000FFF764FB70BD0000D4D8C6B53A00000069
:102490002E0000004D000000480000007A000000FF
:1024A000C8B7B6A80000000070B505460E46144631
:1024B000FFF730FB00231EA201210846FFF746FB71
:1024C0000023292101202268FFF740FB012331214D
:1024D00018466268FFF73AFB002339210120A26801
:1024E000FFF734FB002314A241210120FFF72EFB4C
:1024F000002349210120E268FFF728FB00230FA2F7
:1025000051210120FFF722FB00230DA259210120B8
:10251000FFF71CFB00230BA261210120FFF716FB34
:10252000002309A261210720FFF710FB70BD000006
:10253000D4D8C6B53A0000002E0000004D000000BF
:10254000480000007A000000C8B7B6A800000000EC
:1025500070B505460E461446FFF7DCFA00231EA2AE
:1025600001210846FFF7F2FA002329210120226801
:10257000FFF7ECFA0023312101206268FFF7E6FA49
:10258000012339211846A268FFF7E0FA002314A2BC
:1025900041210120FFF7DAFA002349210120E268F6
:1025A000FFF7D4FA00230FA251210120FFF7CEFA42
:1025B00000230DA259210120FFF7C8FA00230BA226
:1025C00061210120FFF7C2FA002309A2612107203F
:1025D000FFF7BCFA70BD0000D4D8C6B53A000000C1
:1025E0002E0000004D000000480000007A000000AE
:1025F000C8B7B6A80000000070B505460E461446E0
:10260000FFF788FA00231EA201210846FFF79EFA71
:102610000023292101202268FFF798FA00233121A5
:1026200001206268FFF792FA002339210120A26895
:10263000FFF78CFA002314A241210120FFF786FA4C
:10264000012349211846E268FFF780FA00230FA210
:1026500051210120FFF77AFA00230DA25921012010
:10266000FFF774FA00230BA261210120FFF76EFA35
:10267000002309A261210720FFF768FA70BD00005E
:10268000D4D8C6B53A0000002E0000004D0000006E
:10269000480000007A000000C8B7B6A8000000009B
:1026A00070B505460E461446FFF734FA00231EA205
:1026B00001210846FFF74AFA002329210120226858
:1026C000FFF744FA0023312101206268FFF73EFA48
:1026D000002339210120A268FFF738FA002314A251
:1026E00041210120FFF732FA002349210120E2684D
:1026F000FFF72CFA00230FA251210120FFF726FA41
:1027000000230DA259210120FFF720FA00230BA27C
:1027100061210120FFF71AFA012309A26121072094
:10272000FFF714FA70BD0000D4D8C6B53A00000017
:102730002E0000004D000000480000007A0000005C
:10274000C8B7B6A80000000070B504460D4616468E
:10275000FFF7E0F9002303A201210846FFF7F6F98D
:1027600070BD0000D4D8C6B5B3ACB7B6CEA7A3A190
:102770000000000010B5044618A11B48FFF7B2F98D
:10278000207890B960783030C1B21748FFF7D4F89C
:10279000A0783030C1B21448FFF7CEF8E07830307E
:1027A000C1B21148FFF7C8F817E020783030C1B245
:1027B0000D48FFF7C1F860783030C1B20A48FFF722
:1027C000BBF8A0783030C1B20748FFF7B5F8E07821
:1027D0003030C1B20448FFF7AFF810BD41542B466A
:1027E0005245513D000000000020014070B50446F4
:1027F000002521E0002220211148FEF7DEF80A2002
:10280000FEF7A2F904F0800028B1042211460D4819
:10281000FEF7D3F804E0002204210A48FEF7CDF8C1
:102820006006040E202211460548FEF7C6F80A206D
:10283000FEF78AF9681CC5B2082DDBDB70BD00000D
:10284000006000400010064070B5044600221021D0
:102850001648FEF7B2F8002202211548FEF7ADF83F
:1028600000251BE0002220211048FEF7A6F804F006
:10287000800028B1102211460E48FEF79EF804E0B1
:10288000002210210B48FEF798F820221146074835
:10289000FEF793F860000446681CC5B2082DE1DB22
:1028A000102211460148FEF788F870BD0050004024
:1028B000001006400040024070B50446002210217E
:1028C0001648FEF77AF8022211461548FEF775F809
:1028D00000251BE0002220211048FEF76EF804F0CE
:1028E000800028B1102211460E48FEF766F804E079
:1028F000002210210B48FEF760F8202211460748FD
:10290000FEF75BF860000446681CC5B2082DE1DBE9
:10291000102211460148FEF750F870BD00500040EB
:1029200000100640004002404FF04070E1EE100AF7
:10293000704700000040004010000000008005408B
:102940001000000000500040110000000090054001
:1029500011000000006000401200000000A00540CF
:1029600012000000007000401300000000B005409D
:1029700013000000004002401400000000C00540A9
:1029800014000000005002402E00000000D005405E
:102990002E000000006002402F00000000E0054013
:1029A0002F000000007002403000000000F00540E1
:1029B0003000000000D00340460000000000064048
:1029C00046000000001006404700000000200640BE
:1029D00048000000003006407F0000000040064034
:1029E00080000000005006408400000000600640A7
:1029F0008C000000004000401000000000800540F6
:102A00001000000000500040110000000090054040
:102A100011000000006000401200000000A005400E
:102A200012000000007000401300000000B00540DC
:102A300013000000004002401400000000C00540E8
:102A400014000000005002402E00000000D005409D
:102A50002E000000006002402F00000000E0054052
:102A60002F000000007002403000000000F0054020
:102A70003000000000D0034043000000000006408A
:102A80004300000000100640440000000020064003
:102A9000450000000030064058000000004006409D
:102AA00059000000005006405C0000000060064035
:102AB00064000000007006406C00000000800640CA
:102AC0006D000000009006407F00000000400040C4
:102AD000008005400050004000900540006000402C
:102AE00000A005400070004000B0054000400240DA
:102AF00000C005400050024000D005400060024088
:102B000000E005400070024000F0054000D00340A6
:102B1000000006400010064000100640002006405D
:102B200000200640003006400030064000400640CD
:102B3000004006400050064000500640006006403D
:102B400000600640007006400070064000800640AD
:102B500000800640009006400090064000070000FC
:102B60000006000000050000000400000003000053
:102B70000002000000010000000000000000000052
:102B800018ED00E01CED00E020ED00E000E400E0C6
:102B900004E400E008E400E00CE400E010E400E0FD
:102BA00014E400E018E400E01CE400E020E400E0AD
:102BB00024E400E028E400E02CE400E030E400E05D
:102BC00034E400E038E400E03CE400E040E400E00D
:102BD00044E400E048E400E04CE400E050E400E0BD
:102BE00054E400E058E400E05CE400E060E400E06D
:102BF00064E400E068E400E06CE400E070E400E01D
:102C000074E400E078E400E07CE400E080E400E0CC
:102C100084E400E088E400E000E100E004E100E09A
:102C200008E100E00CE100E010E100E080E100E0FC
:102C300084E100E088E100E08CE100E090E100E068
:102C400000E200E004E200E008E200E00CE200E064
:102C500010E200E080E200E084E200E088E200E0D0
:102C60008CE200E090E200E000688909001C4E0E52
:102C700040420F0000201C0080841E0000802500C0
:102C8000999E36000040380000093D0000803E005B
:102C900000004B00404B4C0000204E00808D5B003C
:102CA00000C05D000080700000127A0000007D000E
:102CB00080969800001BB7000080BB00C0E8CE00E3
:102CC000647ADA000024F4000000FA0080A81201FF
:102CD000002D310100366E0140787D01400000007A
:102CE00000000000000100003E000800000000009D
:102CF00000010000A0000000020000000001000030
:102D00003454010000000000000100002B70060098
:102D1000000000000001000028000000000000008A
:102D20000001000027000100000000000001000079
:102D30002000000000000000000100005000000022
:102D400002000000000100001AAC000000000000BA
:102D500000010000179409000000000000010000BD
:102D6000169805000000000000010000140000009B
:102D700000000000000100001380080000000000B7
:102D800000010000A0000000080000000001000099
:102D900010000000000000000001000028000000FA
:102DA00002000000000100004000000004000000DC
:102DB00000010000600000000000000000010000B1
:102DC0005D000C0000000000000100005000000049
:102DD00000000000000100004E00020000000000A2
:102DE0000001000041AC01000000000000010000F3
:102DF0003C00000000000000000100003A800900D3
:102E00000000000000010000300000000000000091
:102E10000001000028000000000000000001000088
:102E200027000100000000000001000023600600F0
:102E30000000000000010000216008000000000008
:102E4000000100001E000000000000000001000062
:102E50001DC0040000000000000100005000000040
:102E60000200000000010000180000000000000047
:102E7000000100001400000000000000000100003C
:102E80006000000004000000000100000024F400C5
:102E900030003000005A62029100910000879303D5
:102EA000D200D20000B4C4041301130100E1F505FF
:102EB00054015401000E27079501950130000000D0
:102EC0003100000032000000330000003400000038
:102ED0003500000036000000370000003800000018
:102EE00039000000410000004200000043000000E3
:102EF000102F000000000020D80400003C02000059
:102F00005C310000D8040020400900009802000055
:102F100011300EFE8242A29E8A82868AB26202FE30
:102F20001C7F40400319012909211809808080BFB6
:102F3000A5A5A53F041ABF0C1178087F24243F24BF
:102F4000247F08410AFDFF010911013BC003072D41
:102F5000FC1FF83F082DF1FFFF87083ACF0B1FFF3A
:102F6000FF3FFFDBFC071EFE7FFF963E21180EF998
:102F7000C1FFD56F9FFFFFF3D1FFFDA7241817E70F
:102F800081FFFF45F7FFFFDF2EFA5FEDFBFFFF9F9D
:102F9000EFCA4BFB7937200ADF40027D7CFFFF7FC1
:102FA000F918169F5E7FFEFFE80FF0172F3FFCFF1A
:102FB000E07FFE07EFBFFDFF38187685CF9FFBFF50
:102FC00083F3FFC1F5DFFBFE47F231F07DCFF63F23
:102FD0000FF086F873EFF6051FF231FCBFE7E40C43
:102FE0003FF1FFFC3E77ED1E7FF1FF767B77EC989B
:102FF0007F10FF060C73CC1CFC30FD071F33DC1068
:10300000F07079070F7BDFF0F1F031578E3BDFF97D
:10301000E0F085579FFBDFE1E0109507863BDFF18D
:10302000E01015078EDBDFF1C01015178739DFE1DF
:10303000081F7786F9DFF9C02028109E3BDFE1EDFD
:1030400050950787FBDFF1F55085081EB8F054B5A1
:103050007718284930F851F90707BBCD7CF8147D63
:10306000773E3BEDF878511F071FF3EE787D51CF87
:10307000FE0C77EC7E3FF1E33E3EF7F6BC3FF3F803
:103080003C19E7F7471FF1FE38F6EFF37E0FFFFC20
:103090007079EFFBFFC7FFFCE1FFDFF9E82017C104
:1030A000EFDFFDFFE0FFFF07F3BFFCFFE01FFC17B2
:1030B0008F3FFE7FF8271F5E7FFF3FFB101E5F3EA6
:1030C000FFFFBF8348027ABCFFFFDFA3DA4BF7792B
:1030D000FFFFCF83FFFFE6F3FFFFE72821FFFE8B13
:1030E000E7FFFFF943FFEA67CFFFFFFCD3FFAA5FCB
:1030F0003FFFFFFE77FFCAFE7FFFFFFF9F651901BD
:103100001BE3FF7319012DF87FFF1F0822FF39070A
:103110004CFFF80F0809FD014901B1AA01071D2064
:103120002020480412204A0101C123E42E1AE80499
:103130001AEC041ABC041AC0041AC4041AC8041AEB
:10314000CC041AD0041AD4041AD8041ADC041AE0E5
:0C31500004495AB947D179621324F400F5
:0400000500000311E3
:00000001FF
