:020000040000FA
:100000001808002011030000190300001B03000062
:100010001D0300001F03000021030000000000007A
:1000200000000000000000000000000023030000AA
:1000300025030000000000002703000095120000C7
:100040002B0300002D0300002F03000031030000EC
:1000500033030000350300003703000039030000BC
:100060003B0300003D0300003F030000410300008C
:10007000430300004503000047030000490300005C
:100080004B0300004D0300004F030000510300002C
:1000900053030000550300005703000059030000FC
:1000A0005B0300005D0300005F03000061030000CC
:1000B000630300006503000067030000690300009C
:1000C0006B0300006D0300006F030000710300006C
:1000D000730300007503000077030000790300003C
:1000E0007B0300007D0300007F030000810300000C
:1000F00083030000850300008703000089030000DC
:100100008B0300008D0300008F03000091030000AB
:10011000930300009503000097030000990300007B
:100120009B0300009D0300009F030000A10300004B
:10013000A3030000A5030000A7030000A90300001B
:10014000AB030000AD030000AF030000C9030000D3
:100150000000000000000000CB030000CD03000001
:10016000CF030000D103000000000000D303000013
:10017000D5030000D7030000D9030000DB03000013
:10018000DD030000DF030000E1030000E3030000E3
:10019000E5030000E7030000E9030000EB030000B3
:1001A000ED030000EF030000F1030000F303000083
:1001B000F5030000F7030000F9030000FB03000053
:1001C000FD030000FF030000010400000304000021
:1001D0000504000007040000090400000B040000EF
:1001E0000D0400000F0400001104000013040000BF
:1001F0001504000017040000190400001B0400008F
:1002000000F002F800F05CF80AA090E8000C8244CC
:100210008344AAF10107DA4501D100F051F8AFF2A9
:10022000090EBAE80F0013F0010F18BFFB1A43F0D4
:100230000103184750410000704100000A444FF08C
:10024000000C10F8013B13F0070408BF10F8014B35
:100250001D1108BF10F8015B641E05D010F8016B7A
:10026000641E01F8016BF9D113F0080F1EBF10F8DE
:10027000014BAD1C0C1B09D16D1E58BF01F801CB01
:10028000FAD505E014F8016B01F8016B6D1EF9D584
:100290009142D6D370470000002300240025002699
:1002A000103A28BF78C1FBD8520728BF30C148BFD9
:1002B0000B6070471FB503F01DFE1FBD10B510BDCC
:1002C00000F0BFF81146FFF7F5FF01F0AFFC00F0BA
:1002D000DDF803B4FFF7F2FF03BC00F0E5F800001F
:1002E0000138FDD170470000EFF3108072B67047FF
:1002F000EFF310807047EFF3108062B6704730BFA5
:10030000704780F311887047EFF311807047000049
:100310004548804745480047FEE7FEE7FEE7FEE721
:10032000FEE7FEE7FEE7FEE7FEE7FEE7FEE7FEE7A5
:10033000FEE7FEE7FEE7FEE7FEE7FEE7FEE7FEE795
:10034000FEE7FEE7FEE7FEE7FEE7FEE7FEE7FEE785
:10035000FEE7FEE7FEE7FEE7FEE7FEE7FEE7FEE775
:10036000FEE7FEE7FEE7FEE7FEE7FEE7FEE7FEE765
:10037000FEE7FEE7FEE7FEE7FEE7FEE7FEE7FEE755
:10038000FEE7FEE7FEE7FEE7FEE7FEE7FEE7FEE745
:10039000FEE7FEE7FEE7FEE7FEE7FEE7FEE7FEE735
:1003A000FEE7FEE7FEE7FEE7FEE7FEE7FEE7FEE725
:1003B000FEE7FEE7FEE7FEE7FEE7FEE7FEE7FEE715
:1003C000FEE7FEE7FEE7FEE7FEE7FEE7FEE7FEE705
:1003D000FEE7FEE7FEE7FEE7FEE7FEE7FEE7FEE7F5
:1003E000FEE7FEE7FEE7FEE7FEE7FEE7FEE7FEE7E5
:1003F000FEE7FEE7FEE7FEE7FEE7FEE7FEE7FEE7D5
:10040000FEE7FEE7FEE7FEE7FEE7FEE7FEE7FEE7C4
:10041000FEE7FEE7FEE7FEE7FEE7FEE704480549E4
:10042000034A054B704700008D13000001020000D5
:100430001806002018080020180600207047704792
:100440007047754600F02CF8AE46050069465346E5
:1004500020F00700854618B020B5FFF7DFFFBDE8A4
:1004600020404FF000064FF000074FF000084FF01B
:10047000000B21F00701AC46ACE8C009ACE8C009AC
:10048000ACE8C009ACE8C0098D46704710B5044619
:10049000AFF300802046BDE81040FFF71ABF000010
:1004A00000487047B405002001491820ABBEFEE7A4
:1004B000260002007047000010B50F4800F09CFEB7
:1004C0000E4800F099FE02210D4800F04AFA002380
:1004D0001A4603210B4800F043F86223002203214F
:1004E000084800F086F80321064800F07BF8032155
:1004F000044800F009F810BD003800F0040800F0CE
:100500000040024000800340012202FA01F1C16074
:10051000704732B1C0684FF0011202FA01F1084091
:100520007047406801228A4042F48032104010F443
:10053000803F08BF704740F470204FF4803202FAC9
:1005400001F1884370470A4601F00F0101236FF360
:100550000F0203FA01F11143826A1143816270476D
:1005600030B4446989004FF00F0C0CFA01FC02F022
:100570000F0524EA0C048D402C434461046A03F007
:10058000030324EA0C0C03FA01F14CEA01010162B5
:1005900002F00F018B1F032B84BF30BC7047C900D2
:1005A000C3694FF0300C30390CFA01FC02F0300214
:1005B00023EA0C0302FA01F11943C16130BC704710
:1005C00000EB411000F14001002003E08B6842F88D
:1005D000043B401CCB6813F4807F18BF7047082889
:1005E000F4D370470268012303FA01F1114301605B
:1005F000704710B400EB4110910050F840CF0F222B
:100600008A4003F00F042CEA020C8C404CEA040CE4
:10061000C0F800C0D0F818C0C3F303242CEA020CC1
:100620008C404CEA040CC0F818C0D0F804C0C3F3E6
:1006300003142CEA020C8C404CEA040CC0F804C0F1
:10064000D0F81CC0C3F303542CEA020C8C404CEAD3
:10065000040CC0F81CC013F4702F4FF001040DD02F
:10066000D0F814C0C3F302432CEA02028B401A43B1
:100670004261026904FA01F1114304E0026904FADB
:1006800001F122EA0101016110BC704708B50321A4
:100690000A48FFF758FF00BF002203210748FFF771
:1006A00038FF0028F8D003210448FFF72DFF6A46E1
:1006B00003210248FFF784FF009808BD0080034033
:1006C000002100E0491C8142FCD370474FF47A625C
:1006D0005043002100E0491C8142FCD370470000D8
:1006E00010B50E490E4800F015FC0E49086008468A
:1006F00000680D49086000F021F800F017F800F0DC
:1007000039F800F00BFA00F0A9FD01F013F800F041
:100710007DFAFFF7D1FE00F041FB10BD0024F4008C
:10072000800600F18C04002090040020024801683B
:1007300041F470010160704788ED00E002480168F3
:1007400041F040410160704734EF00E0D0F80034E0
:1007500012F0010F14BF0B438B43C0F8003412F0AA
:10076000020FD0F8202414BF114322EA0101C0F87F
:100770002014704710B5164800F03EFD00BF144825
:1007800000F04EFD0028FAD01148801C00F034FD26
:1007900000BF0F48801C00F043FD0028F9D00C4832
:1007A000001F00F029FD00BF0948001F00F038FDC0
:1007B0000028F9D03021074800F0EFF80121064861
:1007C00000F0EBF80821054800F0E7F810BD000044
:1007D000090800F0001006400030064000500240BA
:1007E0002DE9F00301264FF0000C0325C2F3411759
:1007F00006FA0CF40C4211D0D0F8C48F4FEA4C0426
:1008000005FA04F928EA0908C0F8C48FD0F8C48FA3
:1008100007FA04F448EA0404C0F8C44F0CF1010CD0
:100820000CF0FF0CBCF1080FE2D3D0F800C512F0B9
:10083000010F14BF4CEA010C2CEA010CC0F800C5F2
:10084000D0F804C512F0020F14BF4CEA010C2CEAD8
:10085000010CC0F804C5D0F808C512F0040F14BF8D
:100860004CEA010C2CEA010CC0F808C5D0F818C5F8
:1008700012F0080F14BF4CEA010C2CEA010CC0F86E
:1008800018C512F0100FD0F83C2514BF0A438A4354
:10089000C0F83C25D0F80C2513F0010F14BF0A4313
:1008A0008A43C0F80C25D0F8102513F0020F14BFAE
:1008B0000A438A43C0F81025D0F8142513F0040F1A
:1008C00014BF0A438A43C0F81425D0F81C2513F03E
:1008D000080F14BF0A438A43C0F81C25D0F84425EA
:1008E00013F4007F14BF0A438A43C0F84425D0F8AC
:1008F000402513F4407F14BF0A438A43C0F84025C3
:10090000D0F82825002B0CBF114322EA0101C0F8C2
:100910002815BDE8F00370470E4AC0F30741D26EB8
:1009200001238B401A420C4A1ABF02EBC1014968ED
:1009300052F83110020AD1F82C354FF00F0C0CFA96
:1009400002FC00F00F0023EA0C0390401843C1F8AA
:100950002C05704700E00F40A040000050F8210037
:10096000704730B50C4605460022FFF7EFFE2146E2
:100970002846BDE8304000230122FFF731BF30B5E3
:100980000C4605460022FFF7E1FE21462846BDE859
:10099000304008230122FFF723BF30B50C4605463F
:1009A00008230122FFF71CFF21462846BDE83040FE
:1009B0000122FFF7CBBE30B50C4605460222FFF7F9
:1009C000C5FE21462846BDE8304009230122FFF735
:1009D00007BF30B50C4605460222FFF7B7FE214699
:1009E0002846BDE8304008230122FFF7F9BE30B5A4
:1009F0000C4605460222FFF7A9FE21462846BDE81F
:100A0000304008230122FFF7EBBE30B50C46054607
:100A10000222FFF79BFE21462846BDE8304008230E
:100A20000122FFF7DDBE40F8212070472DE9F0419B
:100A30002DED068B054601222946354800F0E2F8E7
:100A400000BF334800F098F80028FAD10B21304855
:100A500000F098F800BF2E4800F08EF80028FAD178
:100A60002B4800F098F818B9294800F08DF887B2A3
:100A70000521274800F086F800BF254800F07CF8E3
:100A80000028FAD1224800F086F818B9204800F072
:100A90007BF886B26420FFF713FE06EB072084B2D2
:100AA000641104F48060A8B1E143491CC1F3090159
:100AB000484203F00CF841EC1A0B9FED160B53EC77
:100AC000102B03F02FF841EC190B02F0F9FE08EEA1
:100AD000100A10E0204603F011F841EC1A0B9FEDCC
:100AE0000D0B53EC102B03F01DF841EC190B02F029
:100AF000E7FE08EE100AB2EE040A28EE000ABDEE88
:100B0000C00A10EE100A00B2BDEC068BBDE8F08101
:100B100000000240000000000000C03F10B50F4878
:100B200000F06AFB0E4800F067FB0E48FFF7F4FE8A
:100B30000D48FFF7F1FE04210C48FFF74AFF08219A
:100B40000A48FFF738FF012209480168094800F008
:100B50002FF8084800F01AF810BD0000002000F03F
:100B6000010800F0020C01000208010000500040E2
:100B70008C04002000000240406810F0010018BF03
:100B8000012070474160704780687047016A41F0FA
:100B9000100101627047406810F0010F05D110F09C
:100BA000120F1CBF00F01C007047002070470000AF
:100BB000036A43F010030362002A14BF0E4A0F4A6F
:100BC00002EB820301EB830302EB820292005B1EC5
:100BD000B3FBF2F2521EC260D0F8C02F12F0010F28
:100BE00008BF7047064A1144521CB1FBF2F1491E7E
:100BF00041F08001C1607047801A0600A0860100A4
:100C00007F47370142EA41010160704710B5FFF7A5
:100C100072FB002818BF012010BD000010B5274846
:100C200000F0EAFA00BF254800F0FAFA0028FAD0EE
:100C30002248C01D00F0E0FA00BF2048C01D00F0AF
:100C4000EFFA0028F9D01D48401E00F0D5FA00BF89
:100C50001A48401E00F0E4FA0028F9D01748801C1A
:100C600000F0CAFA00BF1548801C00F0D9FA00282D
:100C7000F9D007211248FFF790FE30211148FFF705
:100C80008CFE30211048FFF788FE10210F48FFF737
:100C900084FE40210B48FFF772FE0848C01C00F09C
:100CA000ABFA00BF0548C01C00F0BAFA0028F9D022
:100CB00002210748FFF771FE10BD0000020800F096
:100CC000001006400060004000500040004002401C
:100CD0000050024070B50446002202210948FFF787
:100CE000A2FE002505E0002600E0761C6E2EFCDB4F
:100CF0006D1CA542F7DB022211460248FFF793FE66
:100D000070BD00000050024070B504460022022170
:100D10000948FFF788FE002505E0002600E0761C64
:100D2000012EFCDB6D1CA542F7DB022211460248B6
:100D3000FFF779FE70BD00000050024008440168D2
:100D40006FF352011143016012F0020F14BFB02182
:100D50008C21016214BF4FF4306140F60C014162F6
:100D60007047425822F0010242507047425842F008
:100D700001024250704708440168006911F0020FF7
:100D800014BF4000401C70470844016811F0020F76
:100D900014BF5108511E01617047000010B517487B
:100DA00000F02AFA01221021154800F033F8012240
:100DB0000821134800F02EF8124800F01DFA4FF0F9
:100DC0000610FFF7A9FD01210F48FFF710FE0D489F
:100DD000401E00F011FA0D48FFF79EFD08210C4857
:100DE000FFF705FE0022C0210548FFF7A7FF0022FC
:100DF00080210348FFF7A2FF10BD0000004000F073
:100E000000800240060800F000600240060C050069
:100E100000500240002A826814BF114322EA0101F7
:100E20008160704721F03F031844036813F0020FFC
:100E300018BF520803699A1A11F0010F14BFC2615A
:100E40008261704770B50446C0211B48FFF789FFD7
:100E500080211948FFF785FF18480068B0FBF4F5BA
:100E60002A46C0211448FFF78FFFC0211248FFF720
:100E700082FF45082A46C4210F48FFF7D3FF0F48D9
:100E80000068B0FBF4F52A4680210B48FFF77CFF91
:100E900080210948FFF76FFF45082A46832106484D
:100EA000FFF7C0FFC0210448FFF760FF8021024820
:100EB000FFF75CFF70BD000000800240900400203E
:100EC00070B50446C0210D48FFF74BFF0C48006881
:100ED000B0FBF4F52A46C0210848FFF755FFC021B2
:100EE0000648FFF748FF45082A46C4210348FFF794
:100EF00099FFC0210148FFF739FF70BD0080024013
:100F00009004002010B580210148FFF72AFF10BD92
:100F1000008002402DE9F003AD4D02462868AD4B3C
:100F20001840A0F18053B3F5A02358D002F038093F
:100F3000DFF8A482C2F38414B9F1100F24D0B9F100
:100F4000300F04BF47F230504FF400130CD038205C
:100F5000904304BF4FF40040C30105D012F0380F96
:100F60001CBF0020034613D09C4F12F4605F4FF06B
:100F7000000618BF00222CD057F8324044457DD3DC
:100F800007EBC2025268DFE0002340461524EBE77E
:100F9000A4F10900122822D29148D5F87CC04FF064
:100FA0004C7350F824002CF01C0C072CA8BF4CF0FC
:100FB000100CC5F87CC02E6D4FF4002C16F4807F09
:100FC000D2D1BCF1010C0AD02E6D16F4807FF8D07E
:100FD000CAE712F0380F18BFB9F1100F03D0BDE8FF
:100FE000F00300207047C2F30268DFF8F8C1002266
:100FF00057F83290E14503D307EBC202526803E091
:10100000521C062AF4D33246C5F8C020D5F8B020C9
:10101000DFF8D4C102EA0C0242F00042C5F8B02069
:10102000DFF8C8C1A4F109024C1E5CF828C0A44432
:10103000BCFBF1FCD5F8B0101943C5F8B01008EBB3
:10104000C80101EB41046A4902EB420201EBC40111
:1010500001EB82046468C5F86441D5F864416FF01F
:10106000FF0808EB0C2C44EA0C0CC5F864C151F8DD
:101070002210D5F8602102F4000200E05FE0114385
:10108000C5F86011D5F86011D5F86021C1F3892148
:10109000C2F30904D5F86421C2F3042202F1010C61
:1010A000D5F8642102F01F02521CB0FBF2F04A098D
:1010B000C2F100084443424301EB481104EB5212D1
:1010C000484302EB9020B0FBFCF0410808460022A8
:1010D00057F832C0844503D307EBC200466802E0EC
:1010E000521C062AF4D3C5F8C060D5F8600110F48C
:1010F000000F1DBFD5F8B00040F08040C5F8B0002B
:10110000D5F8600104BF40F40000C5F860014FF459
:101110000040D5F8682112F0010F02D1401E0028CE
:10112000F7DC002808BF002148D0D5F8B0001843EC
:1011300040F0010040F01040C5F8B0003EE0521C05
:10114000062AFFF419AF3246C5F8C020D5F8602151
:1011500022F40002C5F86021D5F8B020DFF894C071
:1011600002EA0C0242F00042C5F8B020002908BF94
:101170004FF0000C0AD0B0FBF1FCBCF1000F18BF1F
:10118000ACF1010C0CF10101B0FBF1F108460022B9
:1011900057F83240844203D307EBC200466802E0AE
:1011A000521C062AF4D3C5F8C060D5F8B00043EA53
:1011B0008C22104340F00040C5F8B000D5F8B000D4
:1011C00020F47000C5F8B000BDE8F0030846704791
:1011D00000E00F400000FF700024F40054430000C2
:1011E0003841000040787D0100FC0FE030410000F4
:1011F000A4410000FF0300EFC0F307230749C0B27A
:10120000194401F07043C1F3130143EA411141EA6B
:10121000800040F0007001220260704700E60F403D
:10122000C0F307220849C0B2114401F07042C1F373
:10123000130142EA411141EA800040F00070006869
:10124000002818BF0120704700EA0F404FF0E0204F
:10125000016941F0050101617047000010B50648C1
:1012600000683221B0FBF1F4204600F00EF8FFF7E1
:10127000EDFF00F003F810BD8C0400204FF0E020DB
:10128000016941F00201016170474FF0E021401E09
:101290004861704710B52F480078401CC0B22D49F6
:1012A0000870322805DB01202B49087000202949ED
:1012B00008702A480078401CC0B2284908700228EB
:1012C00005DB0120264908700020244908702548C4
:1012D000007828B9244A25480178254800F04AF9C1
:1012E00000F0F8F823490870234800782349087073
:1012F00020480078204908702048007838B908460E
:10130000007820B1084600781D49087002E00020EE
:101310001B4908701A480078012805D1194800783F
:1013200080F001001749087015480078032805D19E
:101330001548007880F001001349087011480078C2
:1013400028B11148007810B102F044F801E0FFF72D
:10135000D9FD10BD460400204704002044040020AD
:101360004504002098040020550400205404002067
:101370004C040020780400207B0400207A04002024
:101380007C0400209E0400209F0400200448006884
:1013900040F4700002490860024803490860704741
:1013A00088ED00E00024F400B00500200146002094
:1013B0002D2956D014DC212976D2DFE801F0303215
:1013C0003436383A3C3E40424446484A4C4E7575A5
:1013D0007575757575757575757575757575540053
:1013E0004C294ED00ADCA1F14102092A5CD2DFE887
:1013F00002F03E5B594E4C443C524000592948D0C3
:1014000006DC4E2937D052293DD055294CD136E043
:101410005F2924D0622943D06F2945D13EE03F2087
:1014200044E0062042E05B2040E04F203EE06620A2
:101430003CE06D203AE07D2038E0072036E07F2058
:1014400034E06F2032E0772030E07C202EE039203D
:101450002CE05E202AE0792028E0712026E0082098
:1014600024E0402022E0002020E03D201EE0772004
:101470001CE006201AE0372018E0712016E03E201C
:1014800014E0382012E0502010E079200EE05E20B9
:101490000CE06E200AE0762008E005E05C2005E024
:1014A0007C2003E0392001E0002000BF00BF70472E
:1014B00010B5002210210648FFF7B5FA8A2000F087
:1014C000A7F8102211460248FFF7ADFA10BD000040
:1014D0000010064038B50025002210212448FFF7EF
:1014E000A2FA422000F094F8002401E0601CC4B28B
:1014F000052CFBDB002405E000F0B4F80DF8040037
:10150000601CC4B2042CF7DB102211461848FFF708
:101510008AFA9DF80000042800D101259DF80000FA
:10152000022800D102259DF80000012800D10325E2
:101530009DF80000402800D104259DF800002028D7
:1015400000D105259DF80000102800D106259DF842
:101550000100042800D107259DF80100022800D1D0
:1015600008259DF80100012800D10925284638BD2D
:10157000001006402DE9FF4105460E4617464FF084
:101580000108002419E0285DFFF710FF0DF8140092
:1015900006EA080028B11DF8140040F080000DF89C
:1015A00014004FEA48604FEA1068385D012101EBF2
:1015B00044010DF80100601CC4B2082CE3DB0022DA
:1015C00010211248FFF72FFA402000F021F81022D6
:1015D00011460E48FFF727FA002210210B48FFF7AB
:1015E00022FAC02000F014F8002405E01DF80400E1
:1015F00000F00EF8601CC4B2102CF7DB102211466C
:101600000248FFF710FABDE8FF8100000010064015
:1016100070B5044620211148FFF7BFF900251AE0F4
:10162000002201210E48FFF7FEF904F0010028B165
:10163000202211460948FFF7F6F904E00022202194
:101640000648FFF7F0F96410012211460448FFF73D
:10165000EAF9681CC5B2082DE2DB70BD0010064037
:101660000030064070B5002420211148FFF787F9AB
:10167000002518E06410002201210E48FFF7D3F97D
:10168000012211460B48FFF7CEF920210848FFF749
:1016900065F908B144F08004002201210548FFF7F4
:1016A000C2F9681CC5B2082DE4DB204670BD0000FD
:1016B0000010064000300640826912F0200FFBD176
:1016C00001607047D0F818C01CF0080FFAD1D0F8AC
:1016D0002CC02CF0100CC0F82CC0D0F830C02CF06E
:1016E000010C2CF4407CC0F830C0D0F830C0B1EB15
:1016F000021F34BF4CF0200C2CF0200CC0F830C07E
:1017000038BF5208C900B1FBF2F1491C49088A09E7
:10171000426201F03F018162C36200218161C16ABE
:1017200041F01001C162016B40F2013211430163CB
:101730007047000010B52148FFF75EFD2048FFF715
:101740005BFD00BF1E48FFF76BFD0028FAD00120AB
:10175000FFF7E2F840F20140FFF7DEF803214FF017
:101760004020FFF752F960234FF4164215480168F4
:101770001548FFF7A7FF1148801DFFF73DFD1048F2
:101780000D30FFF739FD00BF0D480D30FFF748FD64
:101790000028F9D00D48FFF7BFF80D48FFF7BCF857
:1017A00003210C48FFF731F960234FF41642054836
:1017B00001680948FFF786FF10BD0000001800F01F
:1017C000000800F08C04002000C0004001000D0063
:1017D00001040D00005006400020014070B5054690
:1017E0000C4604E014F8011B2846FFF765FF20783B
:1017F0000028F7D10120FEF769FF70BD70B5002405
:1018000014E004F1B00001F0EBFF102001F0E8FF5C
:10181000002001F0E5FF002504E0002002F018F8A8
:10182000681CC5B2842DF8DB601CC4B2092CE8DB4F
:1018300070BD00002DE9F04104460D4616461F46D6
:101840002EB9E9B2E0B23B4626A200F05FF8012EC5
:1018500005D1E9B2E0B23B4623A200F057F8022ED0
:1018600005D1E9B2E0B23B4620A200F04FF8032ECA
:1018700005D1E9B2E0B23B461DA200F047F8042EC4
:1018800005D1E9B2E0B23B461AA200F03FF8052EBE
:1018900005D1E9B2E0B23B4617A200F037F8062EB8
:1018A00005D1E9B2E0B23B4614A200F02FF8072EB2
:1018B00005D1E9B2E0B23B4611A200F027F8082EAC
:1018C00005D1E9B2E0B23B460EA200F01FF8092EA6
:1018D00005D1E9B2E0B23B460BA200F017F8BDE833
:1018E000F0810000300000003100000032000000F4
:1018F0003300000034000000350000003600000016
:101900003700000038000000390000002DE9F041E8
:1019100007460E4615469846002475E0285DB02817
:1019200026DB285DF72823DC601C285CA1281FDB50
:10193000285DB0385E2110FB01F036490860601C5C
:10194000285C00F2AD200968084432490860084666
:101950000068400108604346324639462D48006819
:1019600000F05CF8A01CC4B206F11000C6B24BE057
:10197000285DA12825DB285DA32822DC601C285CCB
:10198000A1281EDB285DA1385E2110FB01F0214952
:101990000860601C285CA138096808441D4908607B
:1019A00008460068400108604346324639461948F7
:1019B000006800F033F8A01CC4B206F11000C6B2F3
:1019C00022E0285D20281DDB285D7E281ADC285DAA
:1019D0002038104908600846006800010860084681
:1019E00000680D4908440B490860434632463946B1
:1019F0000848006800F058F8601CC4B206F10800FE
:101A0000C6B201E0601CC4B2285D002886DCBDE8D7
:101A1000F08100004000002080CF03002DE9F04756
:101A200004460E4617469846002210211D48FEF730
:101A3000FAFF032001F058FEC4F3074001F054FE02
:101A4000C4F3072001F050FEE0B201F04DFE002586
:101A50001EE07019394600F0D5F84FF0000912E089
:101A6000B8F1000F03D100F065F8824604E000F001
:101A700061F8C04300F0FF0A504601F0E9FE09F1A9
:101A8000010000F0FF09B9F1100FE9DB681CC5B2D5
:101A9000022DDEDB102211460248FEF7C4FFBDE82E
:101AA000F0870000006000402DE9F04704460E4634
:101AB00017469846002210211D48FEF7B4FF032068
:101AC00001F012FEC4F3074001F00EFEC4F307203C
:101AD00001F00AFEE0B201F007FE00251EE07019D9
:101AE000394600F08FF84FF0000912E0B8F1000F0E
:101AF00003D100F01FF8824604E000F01BF8C04359
:101B000000F0FF0A504601F0A3FE09F1010000F0C9
:101B1000FF09B9F1080FE9DB681CC5B2022DDEDB55
:101B2000102211460248FEF77EFFBDE8F087000054
:101B30000060004070B50024002516E0002220213E
:101B40000C48FEF770FF6006040E40210948FEF7BE
:101B500005FF10B1601CC4B200E0E4B220221146BF
:101B60000448FEF760FF681CC5B2082DE6DB20467E
:101B700070BD00000060004010B5FFF74FF8002274
:101B800001211F48FEF74FFF6420FFF7A3F8012251
:101B900011461B48FEF747FF6420FFF79BF8E22041
:101BA00001F01EFE0520FFF795F82C2001F018FE2D
:101BB0003220FFF78FF82E2001F012FE3220FFF7BF
:101BC00089F82F2001F00CFE0520FFF783F8232071
:101BD00001F006FE812001F003FE282001F000FE46
:101BE000A22001F0FDFDC82001F0FAFDA02001F0C7
:101BF000F7FD402001F0F4FDAF2001F0F1FD10BD34
:101C00000010064070B505460C46641E05F1AF0095
:101C100001F0E6FDC4F3031101F1100001F0E0FD55
:101C200004F00F0001F0DCFD70BD000008B5FEF708
:101C300057FDFE48006840F6B831B0FBF1F0C0EB4C
:101C4000001080000090FEF74BFBFFF731FCFFF720
:101C500093FFF7A1FA48FFF7C1FDFAA1F848FFF793
:101C6000BDFD4F20FEF7E2FEF94908804820FEF74F
:101C7000DDFEF8490880F648B0F90000002808DACF
:101C8000F34800884042F44908800120F349087075
:101C900006E0EF480088F04908800020EF4908700E
:101CA000EC48B0F90000002808DAEA480088404211
:101CB000EB4908800120EB49087006E0E548008800
:101CC000E74908800020E7490870E348008864215C
:101CD00090FBF1F0E1494870DF4800880A2190FB51
:101CE000F1F090FBF1F201FB1200DC498870DA4858
:101CF00000880A2190FBF1F201FB1200D749C8705D
:101D0000D7480088642190FBF1F0D6494870D44848
:101D100000880A2190FBF1F090FBF1F201FB120028
:101D2000D0498870CE4800880A2190FBF1F201FB6F
:101D30001200CC49C870FEF7A9FCCB4908600846E0
:101D4000006840F6E441484340F6FF71B0FBF1F013
:101D5000C6490860084600684FF47A71B0FBF1F09C
:101D60000A21B0FBF1F201FB1200C1490870BF4823
:101D700000686421B0FBF1F00A21B0FBF1F201FB35
:101D80001200BB494870B94800680A21B0FBF1F065
:101D9000B0FBF1F201FB1200B5498870B34800684E
:101DA0000A21B0FBF1F201FB1200B149C870FFF744
:101DB00025FD0023AFA201210846FFF7A7FD002360
:101DC000AEA201210320FFF7A1FDA948007800235E
:101DD0000246292100900120FFF72CFD0023A9A233
:101DE00031210120FFF792FDA148407800230246EF
:101DF000392100900120FFF71DFD9D4880780023C8
:101E00000246412100900120FFF714FD9848C07858
:101E100000230246492100900120FFF70BFD00231B
:101E200099A251210120FFF771FD8C48007801280B
:101E300006D1002395A229210320FFF767FD05E0C5
:101E4000002393A229210320FFF760FD83484078F7
:101E500000230246312100900320FFF7EBFC7F486E
:101E6000807800230246392100900320FFF7E2FC2E
:101E7000002384A241210320FFF748FD7748C07862
:101E800000230246492100900320FFF7D3FC0023E2
:101E900080A259210320FFF739FD724800780128FC
:101EA00006D1002379A229210520FFF72FFD05E0A7
:101EB000002377A229210520FFF728FD69484078F3
:101EC00000230246312100900520FFF7B3FC65484E
:101ED000807800230246392100900520FFF7AAFCF4
:101EE000002368A241210520FFF710FD5D48C0785E
:101EF00000230246492100900520FFF79BFC0023A8
:101F000064A259210520FFF701FD01F051BA624892
:101F100000780028F9D16148007801280BD1002011
:101F20005E49087001F080FA01F00CFC5C48007812
:101F300008B901F0F1FA5B480078012809D10020C6
:101F40005849087001F03EFB5548007808B901F087
:101F5000ABFB5548007818B9002053490870D4E706
:101F60005148007801285FD100204F4908704C4843
:101F700000780028C9D1012049490870FFF73EFCCC
:101F800000234AA201210846FFF7C0FC4948007817
:101F900048B902204849087000233DA229210120A8
:101FA000FFF7B4FC0BE0012043490870414800787A
:101FB00001230246292100901846FFF73BFC3D48CB
:101FC000007848B93B48407801230246312100900F
:101FD0001846FFF72FFC08E03648407800230246F9
:101FE000312100900120FFF725FC32488078002342
:101FF0000246392100900120FFF71CFC002321A29A
:1020000041210120FFF782FC2A48C07800230246C4
:10201000492100900120FFF70DFC002327A2512148
:102020000120FFF773FC4BE051E000008C0400201E
:1020300041542B4652453D313031300D0A000000ED
:102040000020014041542B564F4C3D33300D0A00C7
:1020500094040020960400209A0400205D040020CF
:102060009C040020610400208404002088040020D7
:1020700065040020B5E7D1B93A000000CEC2B6C869
:102080003A0000002E000000560000002D00000065
:1020900020000000A1E600009E040020470400206C
:1020A0007D040020450400207C040020D4D8C6B55F
:1020B0003A000000700400207E0400204D487A00A1
:1020C0000023FEA261210720FFF720FC1DE7FD4849
:1020D000007802287ED10020FA490870FA4800787A
:1020E000002862D10120F8490870FFF787FB002320
:1020F000AFF2480201210846FFF708FCF3480078D8
:1021000050B90220F24908700023AFF27C02292165
:102110000120FFF7FBFB0BE00120ED490870EB48C5
:10212000007801230246292100901846FFF782FB20
:10213000E648007848B9E548407801230246312155
:1021400000901846FFF776FB08E0E048407800234F
:102150000246312100900120FFF76CFBDB488078BC
:1021600000230246392100900120FFF763FB002382
:10217000AFF2F00241210120FFF7C8FBD348C0783D
:1021800000230246492100900120FFF753FB002362
:10219000AFF2D80251210120FFF7B8FB0023C7A2FC
:1021A00061210720FFF7B2FBAFE6C748007801289E
:1021B0008CD1C7480078012821D1C6480078092869
:1021C00010D0C4480078401CC24908700846007806
:1021D000012300E03BE10246292100901846FFF769
:1021E00029FB92E60020BB490870084600780123CD
:1021F0000246292100901846FFF71CFB85E6B448EB
:10220000007802283ED1B348407809282BD100201D
:10221000B0494870084640780123024631210090B9
:102220001846FFF707FBAB48007809280CD10020BF
:10223000A84908700846007800230246292100902A
:102240000120FFF7F7FA60E6A2480078401CA14998
:1022500008700846007800230246292100900120DA
:10226000FFF7E8FA51E69B484078401C99494870CE
:102270000846407801230246312100901846FFF7B6
:10228000D9FA42E69248007803285DD191488078D7
:1022900009284AD100208F49887008468078012398
:1022A0000246392100901846FFF7C4FA8948407861
:1022B00009282BD100208749487008464078002320
:1022C0000246312100900120FFF7B4FA81480078DE
:1022D00009280CD100207F490870084600780023A7
:1022E0000246292100900120FFF7A4FA0DE6794863
:1022F0000078401C774908700846007800230246A1
:10230000292100900120FFF795FAFEE571484078F9
:10231000401C70494870084640780023024631212D
:1023200000900120FFF786FAEFE56A488078401CAC
:102330006849887008468078012302463921009058
:102340001846FFF777FAE0E56148007805287DD167
:102350006048C078092869D100205E49C8700846E5
:10236000C07801230246492100901846FFF762FA1F
:102370005848807809284AD1002056498870084674
:10238000807800230246392100900120FFF752FA9D
:102390005048407809282BD100204E494870084603
:1023A000407800230246312100900120FFF742FAD5
:1023B0004848007809280CD1002046490870084692
:1023C000007800230246292100900120FFF732FA0D
:1023D0009BE540480078401C3E490870084600785C
:1023E00000230246292100900120FFF723FA8CE503
:1023F00038484078401C37494870084640780023E8
:102400000246312100900120FFF714FA7DE53148A2
:102410008078401C2F498870084680780023024647
:10242000392100900120FFF705FA6EE52948C078B0
:10243000401C2849C8700846C0780123024649213B
:1024400000901846FFF7F6F95FE5FFE75DE51D48E8
:10245000007803287AD100201A4908701A480078B9
:102460000028B5D1012018490870FFF7C7F90023EB
:10247000AFF2C83201210846FFF748FA1348007846
:1024800050B90220124908700023AFF2FC32292112
:102490000120FFF73BFA0BE001200D4908700B48C3
:1024A000007801230246292100901846FFF7C2F95F
:1024B00006480078C0B9054840780DE0C8B7B6A80E
:1024C000000000007C0400207D0400207004002037
:1024D0007E04002074040020012302463121009074
:1024E0001846FFF7A7F908E0FE48407800230246A7
:1024F000312100900120FFF79DF9FA4880780023F0
:102500000246392100900120FFF794F90023AFF231
:102510008C4241210120FFF7F9F9F248C0780023ED
:102520000246492100900120FFF784F90023AFF211
:10253000744251210120FFF7E9F90023AFF2840230
:1025400061210720FFF7E2F9DFE4FFE7E6480078C2
:1025500004287DD10020E4490870E448007890BB4D
:102560000120E2490870FFF749F90023AFF2C442A5
:1025700001210846FFF7CAF9DA48007850B902206D
:10258000DB4908700023AFF2F84229210120FFF750
:10259000BDF90BE00120D6490870D248007801232C
:1025A0000246292100901846FFF744F9CD480078EB
:1025B00050B9CC484078012302463121009018469A
:1025C000FFF738F909E030E0C648407800230246BA
:1025D000312100900120FFF72DF9C24880780023B7
:1025E0000246392100900120FFF724F90023AFF2C1
:1025F0006C5241210120FFF789F9BA48C0780023C5
:102600000246492100900120FFF714F90023AFF2A0
:10261000545251210120FFF779F90023AFF26412DF
:1026200061210720FFF772F96FE4B04800780128B4
:102630008AD1AF480078012815D10720AC4908702D
:10264000AC4800780023024629210090012000E0D8
:1026500085E0FFF7EFF80123AFF2A0126121072018
:10266000FFF754F951E4A248007802282BD1A14881
:10267000007890B907209E4908700123AFF2C41278
:102680006121FFF743F99B4840780023024631213E
:1026900000900120FFF7CEF837E40120944908703C
:1026A0009448407800230246312100900120FFF732
:1026B000C1F890480078012302462921009018466D
:1026C000FFF7B8F821E48A480078032815D10220E2
:1026D00087490870874840780123024631210090DD
:1026E0001846FFF7A7F8834880780023024639216F
:1026F00000900120FFF79EF807E47D480078052848
:1027000015D103207A4908707A488078012302465F
:10271000392100901846FFF78DF87648C0780023DD
:102720000246492100900120FFF784F817E4704821
:102730000078072896D105206D4908700023AFF274
:10274000842261210720FFF7E1F86A48C07801235D
:102750000246492100901846FFF76CF8B6E462483B
:10276000007805287DD100205F4908705F48007817
:1027700090BB01205D490870FFF740F80023AFF2DD
:10278000D46201210846FFF7C1F85648007850B9D5
:102790000220574908700023AFF20C722921012052
:1027A000FFF7B4F80BE00120514908704D4800785C
:1027B00001230246292100901846FFF73BF84948BB
:1027C000007850B9474840780123024631210090F3
:1027D0001846FFF72FF809E030E042484078002320
:1027E0000246312100900120FFF724F83D4880780F
:1027F00000230246392100900120FFF71BF8002337
:10280000AFF2807241210120FFF780F83548C0788F
:1028100000230246492100900120FFF70BF8002316
:10282000AFF2687251210120FFF770F80023AFF278
:10283000743261210720FFF769F847E42B480078DC
:1028400001288BD12A480078072887D129480078A9
:102850004FF47A7110FB01F02649497801EBC1026F
:1028600000E0DFE102EB011100EB810021498978F2
:1028700001EB810100EB41001E49C97808441E4963
:10288000086008460068B0F55C7F7DD308460068A4
:10289000B0F5876F78D81748007812490870154846
:1028A000407848701348807888701248C078C870A3
:1028B00041211248FEF700FF54211048FEF7FCFEAC
:1028C0002B210E48FEF7F8FE46210C48FEF7F4FED9
:1028D00052210A48FEF7F0FE45210848FEF7ECFEBB
:1028E0003D210DE0700400207C0400207D040020C8
:1028F0007E04002074040020800400200020014099
:10290000FD48FEF7D9FEFD48007818BBFB4840782B
:102910003030C0B201460090F748FEF7CDFEF748D0
:1029200080783030C0B201460090F348FEF7C4FE14
:10293000F248C0783030C0B201460090EE48FEF751
:10294000BBFE0D21EC48FEF7B7FE0A21EA48FEF770
:10295000B3FE2DE0E94800783030C0B20146009067
:10296000E548FEF7A9FEE54840783030C0B20146A0
:102970000090E148FEF7A0FEE04880783030C0B219
:1029800001460090DC4800E0D0E0FEF795FEDB4811
:10299000C0783030C0B201460090D748FEF78CFEB8
:1029A0000D21D548FEF788FE0A21D348FEF784FEA4
:1029B0000020D3490870FEF721FF0023AFF64C1228
:1029C00001210846FEF7A2FF0023AFF650120121B5
:1029D0000320FEF79BFFCB48007800230246292105
:1029E00000900120FEF726FF0023AFF66812312188
:1029F0000120FEF78BFFC3484078002302463921AF
:102A000000900120FEF716FFBE48807800230246A2
:102A1000412100900120FEF70DFFBA48C078002345
:102A20000246492100900120FEF704FF0023AFF683
:102A3000A81251210120FEF769FFB3480078012850
:102A400007D10023AFF6BC1229210320FEF75EFF59
:102A500006E00023AFF6C81229210320FEF756FF37
:102A6000A948407800230246312100900320FEF758
:102A7000E1FEA5488078002302463921009003201A
:102A8000FEF7D8FE0023AFF6042241210320FEF713
:102A90003DFF9D48C0780023024649210090032055
:102AA000FEF7C8FE0023AFF6142259210320FEF7DB
:102AB0002DFF96480078012807D10023AFF6342275
:102AC00029210520FEF722FF06E00023AFF6402271
:102AD00029210520FEF71AFF8C4840780023024682
:102AE000312100900520FEF7A5FE8848807800235C
:102AF0000246392100900520FEF79CFE0023AFF628
:102B00007C2241210520FEF701FF8048C078002388
:102B10000246492100900520FEF78CFE0023AFF607
:102B20008C2259210520FEF7F1FE0CE47348007851
:102B3000774908707148407848707048807888708C
:102B40006E48C078C870FEF759FE002371A20121BB
:102B50000846FEF7DBFE7348FEF7BCF8FEF74EFEB4
:102B60000120674908700023AFF6C0220121084602
:102B7000FEF7CCFE6148007850B902206A4908701F
:102B80000023AFF6F42229210120FEF7BFFE0BE05F
:102B9000012065490870594800780123024629211F
:102BA00000901846FEF746FE5448007848B953484E
:102BB000407801230246312100901846FEF73AFE84
:102BC00008E04E4840780023024631210090012061
:102BD000FEF730FE494880780023024639210090F4
:102BE0000120FEF727FE0023AFF6683241210120C5
:102BF000FEF78CFE4148C078002302464921009030
:102C00000120FEF717FE0023AFF6503251210120BC
:102C1000FEF77CFE0023AFF25C7261210720FEF715
:102C200075FEC5E341480078062864D100203F497D
:102C300008703348007890BB012031490870FEF7D6
:102C4000DDFD0023AFF69C3201210846FEF75EFE53
:102C50002A48007850B90220334908700023AFF6A3
:102C6000D03229210120FEF751FE0BE001202E4930
:102C70000870224800780123024629210090184656
:102C8000FEF7D8FD1D48007850B91C484078012354
:102C90000246312100901846FEF7CCFD09E04EE0D7
:102CA0001648407800230246312100900120FEF7AB
:102CB000C1FD12488078002302463921009001208E
:102CC000FEF7B8FD0023AFF6444241210120FEF794
:102CD0001DFE0A48C07800230246492100900120C9
:102CE000FEF7A8FD0023AFF62C4251210120FEF78C
:102CF0000DFE00231CE0BBE000200140700400201A
:102D00007D040020650400205D0400206104002093
:102D100074040020D4D8C6B5B3ACB7B6CEA7A3A16F
:102D200000000000683C01007E0400207C040020BC
:102D3000AFF6780261210720FEF7E8FD38E3FE4890
:102D400000780128FAD1FD480078012815D1022029
:102D5000FA490870FA4800780023024629210090B9
:102D60000120FEF767FDF648407801230246312135
:102D700000901846FEF75EFD1AE3F048007802283E
:102D800015D10320ED490870ED4840780023024634
:102D9000312100900120FEF74DFDE94880780123A4
:102DA0000246392100901846FEF744FD00E3E3484F
:102DB0000078032815D10520E0490870E0488078A4
:102DC00000230246392100900120FEF733FDDC4844
:102DD000C07801230246492100901846FEF72AFDDB
:102DE000E6E2D6480078052813D10720D3490870B9
:102DF000D348C07800230246492100900120FEF705
:102E000019FD0123AFF64C1261210720FEF77EFD6C
:102E1000CEE2CA480078072890D1C948007898B90E
:102E20000220C64908700023AFF670126121072006
:102E3000FEF76CFDC2484078012302463121009024
:102E40001846FEF7F7FCB3E20120BC4908700023E6
:102E5000AFF6981261210720FEF758FDB8480078B8
:102E600001230246292100901846FEF7E3FC9FE269
:102E7000B448007807286AD10020B2490870AE48EB
:102E80000078002892D10120AB490870FEF7B6FC0B
:102E90000023AFF6E85201210846FEF737FDAA48A5
:102EA000007850B90220A54908700023AFF62062CF
:102EB00029210120FEF72AFD0BE001209F4908701F
:102EC000A148007801230246292100901846FEF708
:102ED000B1FC9D48007848B99B48407801230246E0
:102EE000312100901846FEF7A5FC08E0964840788E
:102EF00000230246312100900120FEF79BFC9248FE
:102F0000807800230246392100900120FEF792FCD0
:102F10000023AFF6906241210120FEF7F7FC8A48BA
:102F2000C07800230246492100900120FEF782FC70
:102F30000023AFF6786251210120FEF7E7FC002361
:102F4000AFF6882261210720FEF7E0FC30E27D48E1
:102F5000007808287ED100207A49087076480078E9
:102F600090BB012074490870FEF748FC0023AFF6BF
:102F7000C46201210846FEF7C9FC7348007850B9C5
:102F800002206E4908700023AFF6FC62292101205F
:102F9000FEF7BCFC0BE00120684908706A48007825
:102FA00001230246292100901846FEF743FC66489B
:102FB000007850B9644840780123024631210090DE
:102FC0001846FEF737FC09E030E05F484078002300
:102FD0000246312100900120FEF72CFC5A488078EF
:102FE00000230246392100900120FEF723FC002334
:102FF000AFF6707241210120FEF788FC5248C0787C
:1030000000230246492100900120FEF713FC002313
:10301000AFF6587251210120FEF778FC0023AFF67D
:10302000643261210720FEF771FCC1E1424800785B
:1030300001288BD141480078012820D140480078F0
:1030400070B909203E4908700846007801230246FD
:10305000292100E041E100901846FEF7EBFBA7E1D3
:1030600037480078401E364908700846007801232A
:103070000246292100901846FEF7DCFB98E12F4814
:10308000007802283CD12E48407850BB09202C49BA
:1030900048700846407801230246312100901846C6
:1030A000FEF7C8FB2648007860B90920244908705B
:1030B0000846007800230246292100900120FEF7EF
:1030C000B9FB75E11E480078401E1D49087008468E
:1030D000007800230246292100900120FEF7AAFB78
:1030E00066E117484078401E154948700846407808
:1030F00001230246312100901846FEF79BFB57E161
:103100000E480078032867D10D488078A8BB0920B5
:103110000B498870084680780123024639210090C7
:103120001846FEF787FB0648407838BB092004495B
:1031300048700846407809E07D0400207E040020A5
:10314000740400207C040020700400200023024648
:10315000312100900120FEF76DFB9648007870B990
:103160000920944908700846007800230246292166
:1031700000900120FEF75EFB1AE11EE00EE08D4894
:103180000078401E8B4908700846007800230246EC
:10319000292100900120FEF74DFB09E18548407888
:1031A000401E844948700846407800230246312179
:1031B00000900120FEF73EFBFAE07E488078401E3A
:1031C0007C498870084680780123024639210090A6
:1031D0001846FEF72FFBEBE07748007805287BD1F7
:1031E0007448C078C8BB09207249C8700846C078C6
:1031F00001230246492100901846FEF71BFB6D484B
:10320000807858BB09206B49887008468078002375
:103210000246392100900120FEF70CFB65484078FA
:1032200060BB092063494870084640780023024685
:10323000312100900120FEF7FDFA5E48007870B958
:1032400009205C49087008460078002302462921BD
:1032500000900120FEF7EEFAAAE02DE01DE05548AF
:103260000078401E53490870084600780023024643
:10327000292100900120FEF7DDFA99E04D484078C1
:10328000401E4C49487008464078002302463121D0
:1032900000900120FEF7CEFA8AE046488078401E72
:1032A00044498870084680780023024639210090FE
:1032B0000120FEF7BFFA7BE03E48C078401E3D4942
:1032C000C8700846C078012302464921009018467C
:1032D000FEF7B0FA6CE0FFE76AE0384800780928AA
:1032E00066D10020354908703548007880BB012040
:1032F00033490870FEF782FA0023324A012108465A
:10330000FEF704FB3048007848B902202A490870CB
:1033100000232EA229210120FEF7F8FA0BE001205C
:103320002549087028480078012302462921009089
:103330001846FEF77FFA2448007850B922484078B2
:1033400001230246312100901846FEF773FA09E086
:103350002EE01D48407800230246312100900120D4
:10336000FEF768FA18488078002302463921009059
:103370000120FEF75FFA002315A241210120FEF78C
:10338000C5FA1148C0780023024649210090012067
:10339000FEF750FA00230B4A103251210120FEF7AC
:1033A000B5FA0023AFF6EC6261210720FEF7AEFA12
:1033B000FEF7ADBD740400207E0400207C040020D4
:1033C0007D040020AC2000007004002020000000DC
:1033D0002E00000010B511480068C8B91049114A04
:1033E000126851F83200FDF72DFD0D480D490968AE
:1033F00000EBC1004068094908600A480068401CA9
:103400000849086008460068212801D300200860A8
:1034100002480068401E0149086010BDAC0500204C
:10342000A0040020A805002010B54F20FDF7FEFAEB
:10343000334908804820FDF7F9FA324908803048BE
:10344000B0F90000002808DA2D48008840422E49D3
:10345000088001202D49087006E0294800882A4983
:1034600008800020294908702648B0F9000000288B
:1034700008DA24480088404225490880012025496F
:10348000087006E01F480088214908800020214973
:1034900008701D480088642190FBF1F01B494870BA
:1034A000194800880A2190FBF1F090FBF1F201FB32
:1034B000120016498870144800880A2190FBF1F226
:1034C00001FB12001149C87011480088642190FB6B
:1034D000F1F0104948700E4800880A2190FBF1F085
:1034E00090FBF1F201FB12000A498870084800883D
:1034F0000A2190FBF1F201FB12000649C87010BDD1
:1035000094040020960400209A0400205D0400200A
:103510009C0400206104002010B526480078012892
:1035200006D1002324A229210320FEF7EFF905E0AC
:10353000002322A229210320FEF7E8F91D48427842
:10354000002331210320FEF775F91A488278002301
:1035500039210320FEF76EF91648C278002349216D
:103560000320FEF767F916480078012806D10023EA
:1035700011A229210520FEF7C9F905E000230FA2B9
:1035800029210520FEF7C2F90D4842780023312198
:103590000520FEF74FF90A488278002339210520DB
:1035A000FEF748F90648C278002349210520FEF7B6
:1035B00041F910BD5D0400202D0000002000000036
:1035C0006104002010B5FDF761F80446FDF75EF8D0
:1035D0000444FDF75BF80444FDF758F80444FDF794
:1035E00055F80444FDF752F80444FDF74FF804443D
:1035F000FDF74CF80444FDF749F80444FDF746F89C
:103600000444FDF743F80444FDF740F80444FDF793
:103610003DF80444FDF73AF80444FDF737F8204438
:103620000F21B0FBF1F01D4908600846006840F624
:10363000E441484340F6FF71B0FBF1F018490860DF
:10364000084600684FF47A71B0FBF1F00A21B0FB34
:10365000F1F201FB1200134908701148006864215F
:10366000B0FBF1F00A21B0FBF1F201FB12000D49B1
:1036700048700B4800680A21B0FBF1F0B0FBF1F292
:1036800001FB120007498870054800680A21B0FB59
:10369000F1F201FB12000349C87010BD8404002040
:1036A000880400206504002010B50E48027800232D
:1036B00029210120FEF7BEF80A484278002339216B
:1036C0000120FEF7B7F80748827800234121012046
:1036D000FEF7B0F80348C278002349210120FEF725
:1036E000A9F810BD6504002070B50446002521E04E
:1036F000002220211148FDF796F90A20FDF704FB6E
:1037000004F0800028B1042211460D48FDF78BF922
:1037100004E0002204210A48FDF785F96006040E42
:10372000202211460548FDF77EF90A20FDF7ECFA44
:10373000681CC5B2082DDBDB70BD000000600040D6
:103740000010064010B52DED0C8B1D49C87800F017
:10375000D5F941EC1D0B9FED1B0B53EC102B00F02A
:10376000E1F941EC1B0B16498978154A527802EBB6
:10377000820201EB420000F0AAF941EC1C0B53EC71
:103780001B2B00F0CFF841EC1A0B9FED100B53EC04
:10379000102B00F0C7F941EC190B9FED0E0B53EC09
:1037A000102B00F0BFF841EC180B00F063F90B4947
:1037B000086008460068FDF783FBBDEC0C8B10BD6C
:1037C000610400209A9999999999B93F00000000E5
:1037D000002057400000000000C072406C04002030
:1037E00070B50446002210211648FDF71CF900228E
:1037F00002211548FDF717F900251BE000222021C2
:103800001048FDF710F904F0800028B1102211468D
:103810000E48FDF708F904E0002210210B48FDF7DF
:1038200002F9202211460748FDF7FDF86000044622
:10383000681CC5B2082DE1DB102211460148FDF7D6
:10384000F2F870BD005000400010064000400240F9
:1038500070B50446002210211648FDF7E4F8022254
:1038600011461548FDF7DFF800251BE00022202156
:103870001048FDF7D8F804F0800028B11022114656
:103880000E48FDF7D0F804E0002210210B48FDF7A8
:10389000CAF8202211460748FDF7C5F86000044623
:1038A000681CC5B2082DE1DB102211460148FDF766
:1038B000BAF870BD005000400010064000400240C1
:1038C00021F00042A2F16052B2F5801F01F00043E6
:1038D00028BFD2F17F6C0BD95FEA001C43EAC20219
:1038E00042EB507018BF704728BF20F001007047AE
:1038F000B2F5801FBCBF184670474FEA410C1CF55B
:10390000001F02D2084600F0FABA70B500F0B4F910
:1039100000000089FFF7F6BF4FF00040A0F58000DF
:103920007047000010B591EA030F48BF83F00043D1
:1039300000F1FE81841A71EB030C05D2121943EBDE
:103940000C03001B61EB0C01DFF824E14FEA11547A
:10395000A4EB135C1EEA430F18BF9EEA445F73D0CA
:1039600023EA0E03DCF1200E21EA045143F4801314
:1039700032D322FA0CFE10EB0E0023FA0CFE41EBC0
:103980000E01CCF1200E03FA0EFE10EB0E0051F1E9
:103990000001B1F5801FCCF1200E32D201EB0451B1
:1039A00012FA0EF2BDE8104058BF7047401C38BFF5
:1039B0005FEA420218BF7047002814BF20F00100E0
:1039C00041F100014FEA410313F5001F38BF704772
:1039D000A1F1C04100F09EB9012A43EB0302ACF112
:1039E000200CDCF11F0E32BF4FF0000E23FA0CF357
:1039F00010EB030041EB0451B4EB115FD0D0A1EB0D
:103A0000045101F5801149085FEA300001EB0451CF
:103A10000ED350F1000038BF12FA0EFE08D1BDE8F7
:103A20001040C9E7401C38BF5FEA4202CAD1C3E771
:103A3000BDE810404FEA410313F5001F38BF70473F
:103A4000A1F1C04100F066B99EEA445F08D011EAD6
:103A50005E0FBDE8104004BF01F000410020704738
:103A6000BDE8104070B500F007F900BF64FBBE3E32
:103A70000000E0FF4FEA1153A3F58063D3F11E036A
:103A8000A8BFD3F1200C08DB4FF0004242EAC1226C
:103A900052EA505232FA03F0704709420BD4102B0D
:103AA000C4BF0020704703F5787CBCF1FF3F05D010
:103AB0004FF0FF3070474FF00000704770B500F0D6
:103AC000DBF800BF4992248000207047F0E710F037
:103AD000004248BF4042B0FA80F310FA03F10AD026
:103AE000C3F11D0303F580634FEA415002EB03521B
:103AF00002EBD12170474FF000007047B0FA80F31D
:103B000010FA03F10AD0C3F11D0303F580634FEAF5
:103B100041504FEA035202EBD12170474FF00000B1
:103B200070470000DFF848C170B51CEA111E1EBFC7
:103B30001CEA13159EEA0C0F95EA0C0F00F06F803B
:103B400081EA030423EA4C134EEAD47E21EA4C11A5
:103B500041F4801143F48013AE44A1FB024CA0FB5E
:103B60000365AEF17F7E361955EB0C05A1FB034CC6
:103B70004CF10003A0FB021C16EB0C06654153F14F
:103B80000003094218BF46F0010613F4007F0BD171
:103B90004FEA03314FEA0530340341EA155140EA58
:103BA00016506FF003020AE04FEAC3214FEAC52026
:103BB000F40241EA555140EA56506FF0020202EB1E
:103BC0002E4201EB025585EACE710AD05FEA440C21
:103BD00018BF24F0004450F1000041F1000120EA38
:103BE000D47040F2FE7C624500D270BDA84214BF82
:103BF0004FF080444FF04044002E08BF0024BEF137
:103C0000806FA8BFA1F1C041BDE8704080F2828002
:103C10004FF0000001F1C04101F0004170479EEA01
:103C20000C0F0CEA131518BF95EA0C0F06D04FF0D5
:103C3000000081EA030E0EF0004170BD00F01CF898
:103C40008900013E00F007B800F009B84FEA430CC4
:103C50005FEA5C5C08D081EA030100F05BB84FEAE0
:103C6000410C5FEA5C5CF6D14FF0000001497047FF
:103C70000000FF070000F87F0EF1020E2EF0030E89
:103C80005EF8046B364205D4012A43EB030515F5B3
:103C9000001F12D8012841EB010C1CF5001F0CD8A5
:103CA0000ED14FEAD17C15F5001F0CEB4C0C0CF13A
:103CB000020C08BF4CEBD37C04E04FF0080C01E091
:103CC0004FEAD37C0CEB4C0526FA05F606F0070606
:103CD000B6F1040C06D20EEB860CBDE870404CF039
:103CE000010C6047DFE80CF0090B02024FF00041C5
:103CF0004FF00000A1F5002170BD194610460128C3
:103D000051EB010418BFD4F5001484BF002001F06A
:103D1000004170BD0808A0F500114FEA310170475D
:103D200010B591EA030F48BF83F000433FF502AEA0
:103D3000841A71EB030C07D212198CF0004C43EB80
:103D40000C03001B61EB0C01DFF8A4E14FEA1154F6
:103D5000A4EB135C1EEA430F18BF9EEA445F00F019
:103D6000B08023EA6E03524221EA0451C3EB6E0392
:103D700038BF5B1EDCF1200E25D322FA0CFE10EBBF
:103D80000E0043FA0CFE41EB0E01CCF1200E03FABB
:103D90000EFE10EB0E0051F10001CCF1200E29D4E3
:103DA00012FA0EF201EB0451BDE8104058BF704703
:103DB000401C1CBFB2F1004F704700280CBF491CCB
:103DC00020F00100704712EB020E43EB030218BF14
:103DD0004FF0010E4EEA4202ACF1200CDCF11E0E57
:103DE00054D943FA0CFE10EB0E0051F1FF31CCF127
:103DF0001E0ED5D50EF1010E12FA0EFE404141EB1A
:103E0000010101EB445C5FEA5C5C10D910EBDE70F1
:103E100001EB045138BFBEF1004FBDE8104018BFA0
:103E2000704700280CBF491C20F00100704730D2B9
:103E30004FEAD42C11F5001124F400641BD0B1FA20
:103E400081F20B3AA41AA41ED2F12003914030FA59
:103E500003F31943904001EBCC71002C01EB0451AA
:103E6000BDE81040A8BF704701F1C0414FF000000D
:103E700001F000417047B0FA80F310FA03F100D16D
:103E800010BDE41A173C4805C90AE4E701EB0451E8
:103E900010BD491001EB0451BDE810404FEA30005D
:103EA00002E04FF0000170474A0008BF0042F8D01E
:103EB000B2F5001F28BF704701F000414FF000002D
:103EC00070479EEA445F07D011EA5E0FBDE81040DC
:103ED00004BF002100207047BDE8104070B5FFF717
:103EE000CBFE00BF40DFF63E83F000411046704736
:103EF0000000E0FF4FF04070E1EE100A7047FF2134
:103F000041EAD050C005704700400040100000005A
:103F1000008005401000000000500040110000002B
:103F200000900540110000000060004012000000F9
:103F300000A00540120000000070004013000000C7
:103F400000B00540130000000040024014000000D3
:103F500000C0054014000000005002402E00000088
:103F600000D005402E000000006002402F0000003D
:103F700000E005402F00000000700240300000000B
:103F800000F005403000000000D003404600000073
:103F900000000640460000000010064047000000F8
:103FA0000020064048000000003006407F0000006E
:103FB00000400640800000000050064084000000E1
:103FC000006006408C00000000400040100000002F
:103FD000008005401000000000500040110000006B
:103FE0000090054011000000006000401200000039
:103FF00000A0054012000000007000401300000007
:1040000000B0054013000000004002401400000012
:1040100000C0054014000000005002402E000000C7
:1040200000D005402E000000006002402F0000007C
:1040300000E005402F00000000700240300000004A
:1040400000F005403000000000D0034043000000B5
:10405000000006404300000000100640440000003D
:1040600000200640450000000030064058000000D7
:104070000040064059000000005006405C0000006F
:104080000060064064000000007006406C00000004
:10409000008006406D000000009006407F00000098
:1040A0000040004000800540005000400090054066
:1040B0000060004000A005400070004000B00540D6
:1040C0000040024000C005400050024000D00540C2
:1040D0000060024000E005400070024000F0054032
:1040E00000D00340000006400010064000100640CB
:1040F0000020064000200640003006400030064008
:104100000040064000400640005006400050064077
:1041100000600640006006400070064000700640E7
:104120000080064000800640009006400090064057
:1041300000688909001C4E0E40420F0000201C0040
:1041400080841E0000802500999E360000403800C3
:1041500000093D0000803E0000004B00404B4C0039
:1041600000204E00808D5B0000C05D00008070006C
:1041700000127A0000007D0080969800001BB700B6
:104180000080BB00C0E8CE00647ADA000024F400AE
:104190000000FA0080A81201002D310100366E01E6
:1041A00040787D0140000000000000000001000098
:1041B0003E0008000000000000010000A000000018
:1041C0000200000000010000345401000000000063
:1041D000000100002B70060000000000000100003C
:1041E000280000000000000000010000270001007E
:1041F000000000000001000020000000000000009E
:10420000000100005000000002000000000100005A
:104210001AAC000000000000000100001794090023
:1042200000000000000100001698050000000000DA
:104230000001000014000000000000000001000068
:10424000138008000000000000010000A000000032
:104250000800000000010000100000000000000045
:104260000001000028000000020000000001000022
:104270004000000004000000000100006000000099
:1042800000000000000100005D000C0000000000C4
:1042900000010000500000000000000000010000CC
:1042A0004E000200000000000001000041AC0100CF
:1042B00000000000000100003C00000000000000C1
:1042C000000100003A800900000000000001000029
:1042D0003000000000000000000100002800000085
:1042E00000000000000100002700010000000000A5
:1042F0000001000023600600000000000001000033
:104300002160080000000000000100001E00000005
:1043100000000000000100001DC0040000000000BB
:104320000001000050000000020000000001000039
:104330001800000000000000000100001400000050
:104340000000000000010000600000000400000008
:10435000000100000024F40030003000005A620226
:104360009100910000879303D200D20000B4C404EE
:104370001301130100E1F50554015401000E270754
:1043800095019501A443000000000020B405000041
:104390003C020000BC450000B4050020640200009F
:1043A0009802000011300EFE8242A29E8A82868A06
:1043B000B26202FE1C7F404003190129092118093D
:1043C000808080BFA5A5A53F041ABF0C1178087F87
:1043D00024243F24247F08410A1DFF01B0087F3FA9
:1043E0001F0F070301194A1AC0011808207060FE48
:1043F000FEAEFE77900BF8F8B8F8D080C0E0C08031
:10440000080D1E0103070F1F3F7FFFFFFBF1F06246
:10441000091A01A978111D98B8BEBF01180ABBBBC3
:10442000BBB9B91110B890BC2CFAFFFFC3D00DFA7C
:10443000FF1D01071D7FFBFEF8E0C01A0187093A46
:1044400080D18B193B011511103B112A3F01212905
:10445000064A10F6F60F1F1F1F0C093F802F7CFE27
:10446000FFFF07070F080C197F3F8FC3F0FC3F0EBB
:10447000C2F0FC351B7F7F910809419FDFFFDF9F62
:104480000F0F0F8081100880E0F87E1F07033808A7
:1044900008193979F9F999011A9F01180D9B999911
:1044A000F9F979391F0F0703010161567FE1E1E155
:1044B0007F093D8052801CC0F0FC7C195CB80A80EA
:1044C000C0E0F0B83C3E3F390148093B3F3E3CF874
:1044D000F0E0C02D410E40F81C1F1CF880581C0253
:1044E0000F3F3F7E7EFEFFFFFBF1F060E0F010101B
:1044F000D3D393131393D3D353530A2A530A591381
:104500005753D3D01030F01E0306040607AF0B3A02
:10451000E0F0803BFFFED6280F808081838381807E
:10452000BFFFE0E0E0EFEF04180AEBEAEAEBEFE5AB
:10453000E0E0EB092AEA133AE7131EEEEEE0E0BFF3
:104540002F1901080A1DC0E0F0F8FCFFFF9F9FE251
:10455000715A20014B44010101145A0102690E01F4
:104560001E1C0101B823322D239302320F5A4B082F
:1045700069105A0B081AEE28290829309A78202346
:104580007003321E1A1008A93869486940A9589A60
:104590005A286938294829889ADC10A92009165810
:1045A00029082980A9605A3C10A9D8A9C029081A4D
:0C45B0008808293869D0911324F4000019
:0400000500000201F4
:00000001FF
